:020000040000FA
:1000000000040020491400004F14000051140000A7
:100010006D14000089140000A51400000000000009
:10002000000000000000000000000000EF100000D1
:10003000000000000000000069110000C53205004A
:10004000110D00000000000000000000DD0D0000A8
:10005000C90F000000000000A90D00000000000012
:100060000000000000000000000000000000000090
:100070000000000000000000150C0000000000005F
:10008000FFFFFFFFFFFFFFFFFFFFFFFFFFFFFFFF80
:10009000FFFFFFFF12FFFFFFFFFFFFFFFFFFFFFF5D
:1000A00000F002F800F0A5FD0AA090E8000C8244E0
:1000B0008344AAF10107DA4501D100F09AFDAFF2BD
:1000C000090EBAE80F0013F0010F18BFFB1A43F036
:1000D000010318473C0300005C0300000A444FF092
:1000E000000C10F8013B13F0070408BF10F8014B97
:1000F0001D1108BF10F8015B641E05D010F8016BDC
:10010000641E01F8016BF9D113F0080F1EBF10F83F
:10011000014BAD1C0C1B09D16D1E58BF01F801CB62
:10012000FAD505E014F8016B01F8016B6D1EF9D5E5
:100130009142D6D370470000103A24BF78C878C1E6
:10014000FAD8520724BF30C830C144BF04680C60DD
:1001500070470000084900FB01F0084909684FEAB0
:1001600090304FEA912100FB01F05FEA901001D03E
:10017000401EFDD8704700006EA301002C07002030
:1001800070B5049CA14D286142EA81159F4EB5616E
:100190003546EB61EC60012535620025356200BF14
:1001A0009A4DED6A15F0010FFAD170BD38B50446CD
:1001B000002534B1012C08D0022C12D0032C23D1FD
:1001C0001BE000209149086421E09048006C38B998
:1001D0000020E02302461F210090A320FFF7D0FF5C
:1001E00015E00020E02302461F210090A320FFF726
:1001F000C7FF00208549086409E00120834908649D
:1002000088640020886402E06FF0250500BF00BF0D
:10021000284638BD30B17D49896841F008017B4AE4
:10022000916005E07949896821F00801774A916079
:1002300070477648406A00F00100704708B500201A
:10024000E023024607210090FF20FFF799FF08BD39
:1002500038B500246D48006D10F0010F01D0FFF794
:10026000EDFF0020C0230246072100900520FFF784
:1002700087FF00BFFFF7DDFF0028FBD1634804685C
:100280000020C0230246072100903520FFF778FFA9
:1002900000BFFFF7CEFF0028FBD15C48056844EAA9
:1002A0000524204638BD10B5FFF7D2FF044614F0F0
:1002B000010F01D0002010BD0120FCE72DE9F8431B
:1002C00005460F4601F080F85048006D10F0010F10
:1002D00001D0FFF7B3FF012F06D0022F06D0032F66
:1002E00006D0042F08D105E0AC7A0BE0EC7A09E0E7
:1002F0002C7B07E06C7B05E001F064F86FF0F80000
:10030000BDE8F88300BF7F2C04D101F05BF86FF0EB
:10031000F800F5E7FFF79CFF86B226F4C0764BF6AF
:100320008370064004F01F0046EA800614F0400F78
:1003300003D004F0200046EA4026344846604FF0DF
:1003400001080020E0230246072100900620FFF765
:1003500017FFA023002207210120CDF80080FFF71E
:100360000FFF0120FFF756FF00BFFFF79CFF00289B
:10037000FBD00020FFF74EFF0120FFF717FF01F031
:1003800021F80020BCE7F8B5064601F01DF81F482B
:10039000006D10F0010F01D0FFF750FFFFF758FF7D
:1003A00084B224F4C0744BF683700440757A05F06F
:1003B0001F0044EA800415F0400F03D005F0200030
:1003C00044EA40241148446001270020E02302460B
:1003D000072100900620FFF7D3FEA023002207216B
:1003E00001200097FFF7CCFE0120FFF713FF00BFAD
:1003F000FFF759FF0028FBD00020FFF70BFF01207B
:10040000FFF7D4FE00F0DEFF0020F8BD00600040E2
:100410004CBB060000000020801E0000DC00000035
:1004200028BF0600FCFF0120040000003801000086
:1004300010B503200246084B19684FF6FF03194018
:10044000064B0B4343EA0221034B196000BF07F040
:10045000EFF9002010BD00000CED00E00000FA05EF
:100460002DE9FE4F0027B946A248A3490844A349F5
:10047000086008460068C01DC008C0000860084643
:1004800000689F4908449D49086018219D4801F073
:100490004AFD9A4801689C48401A9C4908609C485B
:1004A000806800F01E00022805D09948806800F09E
:1004B0001E00042802D1DFF85CA20AE0944880689C
:1004C00000F01E00062802D140F2044A01E04FF07D
:1004D000000A4FF0000ABAF1000F7AD0DAE9010100
:1004E00044180CB900BF75E0DAF8008018F0030F6B
:1004F00004D028F0030828F003000444E01CC117CE
:1005000000EB917189108C00A8F11808C1461821E0
:10051000484601F008FDC9F808407C48006884425C
:1005200009D92246794801687BA035F03BFA6FF083
:100530000600BDE8FE8F71480068404505D808EB0D
:10054000040018307049884205D383A035F02AFA98
:100550006FF01500EDE708EB040018306A49884297
:100560000ED208EB040000F118071821384601F0FC
:10057000DAFC08EB040018306349081A1838B86030
:100580005E480068A8EB0000A0F1300424F00704E6
:100590005A4805681821284601F0C5FC204604EB9E
:1005A000D0714910A960A868284400F118061821E4
:1005B000304601F0B8FC204604EBD0714910B16020
:1005C00017B1B86801E004E0002020444F490860FA
:1005D00000BF00BFBAF1000F1FD1484805681821BD
:1005E000284601F0A0FC494800681821C1EB5000E2
:1005F000A86042480168A86818300E1818213046D3
:1006000001F091FC414800681821C1EB5000B06036
:100610003E48006830383D4908603FB93948466077
:10062000056068602E607560306008E0354847609E
:10063000056068602E60756037607E6038603348A2
:10064000006830498860032028730C20307307B19C
:100650003873B9F1000F02D0082089F80C0005F1B9
:100660001800A96801F05FFC06F11800B16801F0FC
:100670005AFC27B107F11800B96801F054FCB9F130
:10068000000F2FD04348C9F81000D9F8080000F136
:100690001804E01704EB90500294801201D03EA0A1
:1006A00000E03EA0A346E11704EB9151891207D068
:1006B000A04644464FEAE87108EB9151891200E0E8
:1006C000214609EB0403CDE9001099F80C0010F065
:1006D0000C0F01D032A000E033A001464A4634A0FE
:1006E00035F060F9074880683D4908603D49086079
:1006F00000201EE7801E0000E80B0100A00400207F
:10070000000000200C20002000000220A404002093
:100710000050004004047C004D4D4D3A70726561FC
:100720006C6C6F63206661696C656421206E6F7408
:1007300020656E6F756768206D656D6F727928250D
:10074000642920746F206265207265717569726515
:1007500064282564290D0A004D4D4D3A707265617B
:100760006C6C6F63206661696C656421206D656DDA
:100770006F72792077696C6C206265206F76657284
:1007800077697274652064616E67696F75736C79DF
:100790000D0A0000DFBC21374B00000042000000C2
:1007A00068696768000000006C6F77200000000037
:1007B0004D4D4D3A707265616C6C6F6320257320EE
:1007C0006D656D6F7279205B3078253038582D2D2E
:1007D0003078253038585D20256425730D0A0000D7
:1007E000A8040020AC04002010B500201449C1F872
:1007F0000C011448006820F4007012490860084693
:10080000006820F001000860002009F005FD0120CB
:1008100009F002FD0B48006820F4007000F500703C
:10082000084908600846006820F00100401C086084
:1008300001200349C1F80C0103490860002010BDE4
:1008400008000A420050004034070020F8B508258F
:1008500052F01EFD00F0BEFC34A035F0A3F817E006
:1008600039480068009000BF3749009809688842FD
:10087000FAD03548006800903448006800F0B2FCB7
:10088000314800680099401A0090009800B105E0D6
:100890002E48006840002D490860E1D100BF2B4878
:1008A0000068400829490860084604681EE0274897
:1008B000006820432549086023480068009000BF75
:1008C0002149009809688842FAD01F4800680090C2
:1008D0001E48006800F086FC1B48006800998842AA
:1008E00004D01A480068A043184908602800A5F100
:1008F000010502D060080400D9D1144800683221F3
:10090000B0FBF1F06421B0FBF1F201FB12060F48DD
:10091000006841F28831B0FBF1F70C4803683246B9
:1009200039460BA035F03EF80020F8BD00006C6998
:1009300062726174696E672064656C6179206C6FA6
:100940006F702E2E2E0D0A00C40700202C070020E9
:10095000000025642E2530326420426F676F4D49B8
:10096000505320286C706A3D2564290D0A00000050
:1009700010B5194857F09BFF1748143057F097FFF0
:100980001548543057F093FF134908390846416120
:100990000020C86108468162816610480068401CDA
:1009A0000E4908600C4808380D49086040F020FBEB
:1009B00009480838006B0B490968884204D9064881
:1009C0000838006B0749086007480068401C064962
:1009D0000860002010BD000048070020D00700205C
:1009E000B8070020D4070020EC07002010B5002035
:1009F000064908604021064801F095FA4FF422614B
:100A0000044801F090FA002010BD000030140020CE
:100A1000182C00200C0A00200548C0680549086011
:100A20000348006820F00100014908600020704779
:100A3000000002402004002000000000E907000040
:100A4000310400004D08000061040000710900003D
:100A5000ED090000190A00000000000005B40600BE
:100A60000600000001000000393205000CB4060049
:100A70001EB406004CB40600060000000100000091
:100A8000FD31050053B4060074B4060099B40600A5
:100A90000300000001000000C52B03009DB4060008
:100AA000C7B406003DB506000300000002000000C8
:100AB0006DF5010041B506007FB5060049B6060098
:100AC000040000000100000055EB01004EB60600D6
:100AD00085B6060035B706000500000001000000DD
:100AE000193405003BB706006FB70600CCB7060007
:100AF0000400000001000000ED420300D1B7060031
:100B00000BB806001FB5604609F09CFF1FBD1FB55E
:100B1000604609F0F1FF84461FBD1FB560460AF02C
:100B200047F884461FBD1FB560460AF087F81FBD11
:100B30006E2901F0F283702900F0F485662924F013
:100B400016A3652924F013A3672924F010A36129B3
:100B500024F00FA303681B0A28BF41F08001692914
:100B600000F06285642900F05F85752900F05C85DE
:100B70006F2901F0E384782900F0C085E92901F0AC
:100B80007B84E42901F07884F52901F07584EF294C
:100B900001F0E084F82900F0BF850368DB0928BF75
:100BA00041F08001632901F0FC83732901F0018485
:100BB000E32902F0E581F32902F0EA810020704781
:100BC0001FB500F0A2FF01F0F7FD04000020002196
:100BD00063F012FE401C60600020002163F022FEE2
:100BE000E0600020002163F033FE20611FBD10B5DE
:100BF00010BDDFF810D0FFF7E3FF30F089FE02F000
:100C00009FFC00000004002003B4FFF7F0FF03BCCA
:100C1000AFF3008010B509F05BFD142026F06EFFE5
:100C200040B932480068002804DD30480068401CA4
:100C30002E4908602E48006819302D4908602D485B
:100C40000068401C2B49086009F010FE2948006824
:100C500028284AD300202749086027480068401CFC
:100C600025490860002056F0A7FB044621460820CD
:100C700027F0E6FA21480078C0B921480078401CE6
:100C800040B21F490870084690F900001E2822DD76
:100C90001C48007838B1084690F900003C281ADD5D
:100CA00028F0F8FB17E028F0F5FB14E01648006880
:100CB000032810DB144800680C280CDC134800786B
:100CC000401C40B211490870084690F900001428F1
:100CD00001DD28F0DFFB11F089F8012801D028F0B0
:100CE000D9FB28F093FC49F06FFD10BD2C040020C7
:100CF000100400201404002028050020DA1400202D
:100D00001C0400201C0700205C1400201D0400208F
:100D10002DE9F04700243CE004EB4401204A52F85E
:100D2000210021F095F90546002D00DA30E005F0AC
:100D30001F01012000FA01F82E0E1F2000EB860093
:100D400000F0FF09484604F04AFC074617EA080F7E
:100D50001DD04146484604F017FC04EB4401104AFC
:100D600052F8210026F08AFD04EB44000C4B53F8A6
:100D7000201004EB440003EB8000426830469047AB
:100D800004EB4401064A52F8210026F0B9FD00BFE9
:100D9000641C044800688442BEDBBDE8F0870000A4
:100DA000901F00202804002010B509F059FC0848C5
:100DB000006858B10748007818B90748006828F05B
:100DC000FDFE0548006802490968884710BD00001B
:100DD000780400207C0400206C04002038B5002436
:100DE00000210C2003F0BCFF044614F0010F3ED09C
:100DF0002A480068B8B30AE029480088401C2849FE
:100E0000088008460088B0F5006F00DB0DE024483C
:100E10000088B0F5006F08DA20490968204A128876
:100E2000881804F0A5F80128E6D000BF1D48006826
:100E3000002818DC09F0DAFE48B900200346024613
:100E4000014600904FF4F55034F058F806E00023C6
:100E50001A4619464FF4F55034F01AFA1148006852
:100E6000401C1049086000210A2003F079FF14F0AB
:100E70001E0F11D014F0020F06D114F0040F03D18D
:100E800014F0080F00D100BF0021052003F068FF17
:100E900000210A2003F064FF38BD00007C0500201B
:100EA000800500208405002008B52748806910F0DF
:100EB0001E0F25D02548D0F8EC0218B124A034F03C
:100EC00071FD16E02148D0F8F00218B127A034F0E7
:100ED00069FD0EE01D48D0F8F40218B12AA034F0E4
:100EE00061FD06E01948D0F8F80210B12CA034F0EA
:100EF00059FD01203049C1F8E0033049C1F87C02B6
:100F00001248D0F8E802C0B100BFEFF3058048B93D
:100F10000020034602460146009041F6016033F08E
:100F2000EDFF06E000231A46194641F6016034F051
:100F3000AFF901202149C1F874022148006810B1BD
:100F400001202049086008BD0060014018002C42C3
:100F50004675617274205258206572726F722069F2
:100F60006E746572727570740D0A00004675617258
:100F700074205258206572726F72206F766572729B
:100F8000756E0D0A0000000046756172742052589B
:100F9000206572726F72205061726974790D0A0057
:100FA0004675617274205258206572726F722046C5
:100FB00072616D650D0A000020002C4214002C4265
:100FC00000072C4288062C4208B52A48D0F8E802CF
:100FD000E0B101202849C1F874020021082002F084
:100FE000F9FF00BFEFF3058048B900200123024656
:100FF000014600904FF4F85033F080FF06E00123E3
:10100000002211464FF4F85034F042F91B48806931
:1010100010F01E0F22D01748D0F8EC0210B118A023
:1010200034F0C0FC1348D0F8F00210B11BA034F02B
:10103000B9FC1048D0F8F40210B118A034F0B2FC9A
:101040000C48D0F8F80210B114A034F0ABFC012029
:101050001849C1F8E0030849C1F87C021648006845
:1010600030B11648006818B101201349091D086005
:1010700008BD000018002A4214002A420050014016
:101080004275617274205258206572726F722069C5
:101090006E746572727570740A0000004275617238
:1010A00074205258206572726F72206F766572726A
:1010B000756E0A0020002A4284062A4200072A424E
:1010C00062B6704772B6704761B6704771B67047C6
:1010D000401EFDD87047000062B6704772B6704778
:1010E00061B6704771B67047401EFDD870472C4BF3
:1010F00019684868B0E8F00F80F309884FF00000E5
:1011000080F311884EF00D0E7047000000000000C3
:10111000044800F108000068006880F3088862B69F
:1011200000DF000000ED00E00FB54FF480604FF0ED
:1011300000010968A1EB000101F101014FF0A502D6
:1011400011F8013B401E03D99342F9D000F1010090
:101150000349086003494FF4806008600FBD000038
:101160009404002090040020EFF309800C4B1A68CF
:1011700020E9F00F506008B54FF0200080F311888F
:1011800057F0C4FF4FF0000080F31188BDE808401D
:1011900019684868B0E8F00F80F3098870470000CC
:1011A000B807002062B6704772B6704761B67047E4
:1011B00071B67047401EFDD87047000062B6704798
:1011C00072B6704761B6704771B67047401EFDD861
:1011D0007047000062B6704772B6704761B67047DC
:1011E00071B67047401EFDD87047000062B6704768
:1011F00072B6704761B6704771B67047401EFDD831
:101200007047A0E8F01F704762B6704772B670472B
:1012100061B6704771B67047401EFDD870472DE922
:10122000005050E800EFAEF1010E40E800EC9CF0F9
:10123000000FF6D1BFF35F8F9EF0000F44BF8446CE
:101240008847BFF35F8F00BFBDE800902DE90050D5
:1012500050E800EFAEF1010E40E800EC9CF0000F0A
:10126000F6D1BFF35F8F9EF0000F4ABF84464FF068
:10127000000C88476046BFF35F8F00BFBDE8009059
:101280002DE90050BFF35F8F00BF50E800EF0EF173
:10129000010E40E800EC9CF0000FF6D1BFF35F8F29
:1012A000BEF1000FDCBF84468847BDE800902DE901
:1012B00004504FF0807250E800EFAEEB020E40E8B1
:1012C00000EC9CF0000FF6D19EF0000F1CBF84468E
:1012D0008847BFF35F8F00BFBDE804902DE904503D
:1012E000BFF35F8F00BF4FF0807250E800EF96446D
:1012F00040E800EC9CF0000FF7D124BF84468847FB
:10130000BDE80490FFF78BFF70472DE90050BFF355
:101310005F8F00BF50E800EF0EF1010E40E800ECD7
:101320009CF0000FF6D19EF0000F04BF8C4688475A
:10133000BDE8009062B6704772B6704761B67047FC
:1013400071B67047401EFDD87047000062B6704706
:1013500072B6704761B6704771B67047401EFDD8CF
:10136000704704B550E8002F40E8001292F0000FDB
:10137000F8D14FF0000004BD0CB551E8002F024435
:1013800041E8002393F0000FF7D110460CBD0CB5D7
:1013900051E8002FA2EB000241E8002393F0000F78
:1013A000F6D118460CBD0CB551E8002F22EA000218
:1013B00041E8002393F0000FF6D10CBD62B67047F0
:1013C00072B6704761B6704771B67047401EFDD85F
:1013D000704700000B49D1F800C04A685CF8043B34
:1013E0001068184442F8040B8C4528BFA1F1DC0CAE
:1013F0008A4228BFA1F1DC02C1F800C04A6020F097
:101400000040704790290120DFF8B4D0ADF5805D31
:101410002C48A0F58060006801B409F0EDFB2A4C6F
:101420002A4DAC4209D294E80F0030B443F00103D6
:10143000984730BC04F11004F3E7FFF7C1FBDFF875
:1014400084D0234800470000004622480047FEE7BA
:101450001EF0040F0CBFEFF30880EFF309802DE9B5
:10146000F00FEFF3088125F01EB870471EF0040F4F
:101470000CBFEFF30880EFF309802DE9F00FEFF3D5
:10148000088125F010B870471EF0040F0CBFEFF371
:101490000880EFF309802DE9F00FEFF3088125F0C4
:1014A00002B870471EF0040F0CBFEFF30880EFF393
:1014B00009802DE9F00FEFF3088124F0F4BF7047A5
:1014C000FCFF012000040020100400003004000094
:1014D000111903000914000010B5044600F096FE2F
:1014E0000068005D00F0010010BD00007CB51D46E5
:1014F00016460C00009001D02044401E074B7B4450
:101500002A4669460190304600F021FF05461CB18D
:101510000020694600F02EFF28467CBD7D0E0000AD
:101520000FB41CB5084B06AA7B4469460090059889
:1015300000F00DFF04460020694600F01BFF204626
:101540001CBC5DF814FB0000490E00000FB47CB514
:101550000C0009AA009001D02044401E084B7B4497
:1015600069460190089800F0F2FE05461CB1002083
:10157000694600F0FFFE28467CBC5DF814FB0000C5
:101580001D0E000070B5044685690068C10601D5CE
:10159000302600E02026C00708D070BDD4E9012124
:1015A00030469047206A00F1010020626D1EF5D59B
:1015B00070BD70B5044685690078C00708D170BD5C
:1015C000D4E9012120209047206A00F10100206227
:1015D0006D1EF5D570BD70B50C460546012A05D0C7
:1015E0002878800600D5EA69002302E0012305E09F
:1015F0005B1C934202D2E05C0028F9D1A869E6188E
:10160000C01AA861286A184428622846FFF7BAFF62
:1016100004E0D5E9012114F8010B9047B442F8D356
:101620002846FFF7C6FF70BD2DE9F04106460024AD
:1016300010687529314616A511D000F000FE00286B
:1016400003DAC0F1000013A507E031688A0701D56D
:1016500011A502E0490704D510A5012401E000F01E
:10166000F7FD00210A2306F1240707E0B0FBF3F29F
:1016700003FB1200303078541046491C0028F5D185
:1016800023462A463046BDE8F04100F0EABD00009E
:10169000000000002D0000002B00000020000000D2
:1016A000F0B40D460188090502D5234C7C4402E0C4
:1016B000214C7C440E34002100F124060BE002F0A2
:1016C0000F074FEA1212E75D42EA03724FEA131363
:1016D000775401F1010152EA0307F0D102780023A7
:1016E000120704D5702D06D009B111340223224609
:1016F000F0BC00F0B6BD10340123F8E770B5044625
:101700000D462146106800F0A3FD024629462046FA
:10171000BDE870400023C3E7D21D22F00703D3E9E0
:101720000023BDE70368126843F020030360082329
:10173000C3610023B4E70000989506002DE9F05F2F
:10174000894604464FF0000ADFF878B1FB44C0F840
:1017500020A02046E1688847002875D0252806D0BB
:10176000D4E901219047206A401C2062F1E700265D
:101770005F462046E16888472028054608DB312D72
:1017800006D207EB050010F8200C08B10643F0E77D
:10179000B00701D526F00406C4F81CA00027C4F841
:1017A00018A02A2D09D0284609F0F2FD38B304EB21
:1017B0008708303DC8F8185019E059F8041B204636
:1017C00004EB87029161E1688847012F054618D133
:1017D000E069002820DA26F020061DE0D8F818007D
:1017E00000EB800005EB40003038C8F818002046B8
:1017F000E1688847054609F0CBFD0028EED1012FAE
:101800000AD02E2D08D12046E16888477F1C054666
:10181000022F46F02006C4DBA069002803DA40420C
:1018200046F00106A061F00701D026F010066C2DED
:101830000BD0682D09D04C2D39D06A2D35D0742DA0
:1018400035D07A2D33D016E038E0E1682F462046B7
:101850008847B842054609D16C2F26D04FF48060E6
:10186000E168064320468847054604E06C2F1AD0FD
:101870004FF4807006430DB3A5F14100192802D83A
:10188000203546F400664A462946204626604E46E4
:10189000FFF74EF980B101280BD0F61D26F00700A6
:1018A00000F1080955E74020E4E78020D8E7002050
:1018B000D6E706F104094CE7284651E7206ABDE85F
:1018C000F09F0000209506000FB400B58DB010A960
:1018D000099000910B904FF0FF300A9000200C907F
:1018E000064878440690064878446A4607900F995F
:1018F00009A800F04DFE0DB05DF814FBCB0C000004
:10190000E30C00002DE9FF5F1D464FF0FF3B9146C1
:101910004FF000085F46D5E90146A96901987F1C90
:101920008847296A824688470028F6D11AF10100C3
:101930000CD0002E24F4C06419DD600614D5BAF171
:101940002B0F09D0BAF12D0F0ED103E0584604B089
:10195000BDE8F09F44F48064A96901987F1C884722
:10196000761E8246002E02DDBAF1300F03D0B9F1A7
:10197000000F26D032E0A969761E01987F1C44F43E
:1019800000748847002E824605DDBAF1780F06D034
:10199000BAF1580F03D0B9F1000F10D01EE0B9F121
:1019A000000F02D0B9F1100F18D1A969761E019865
:1019B0007F1C24F4007488478246102002E008202F
:1019C00000E00A20814609E0A96908FB0908761EA3
:1019D00001987F1C44F4007488478246002E05DD80
:1019E0004946504600F0C0FD0028EDDAE96901984B
:1019F0008847A00502D46FF00100A8E7E00727D1CF
:101A0000600614D5600502D5C8F1000000E040462C
:101A1000296801F104022A600968220501D50870CD
:101A200016E0220701D5088012E0086010E028685F
:101A300000F1040129600068210502D580F80080CA
:101A400006E0210702D5A0F8008001E0C0F8008080
:101A500038467CE770B5064600F0E0FB04680546B2
:101A600030460A22002100F002F82C6070BD2DE9FA
:101A7000F04791460F4680460446002614F8015B65
:101A80002DB100F0C3FB0068405DC007F6D12B2DDF
:101A900002D02D2D18D0641E4A463946204600F04B
:101AA000A7FD27B13968A14201D1C7F800804FF0E6
:101AB000020471050BD54042002803DD00F0AEFBA7
:101AC0000460A007BDE8F08746F48066E4E70028DC
:101AD000F8DA00F0A3FB04606FF00040F2E70000CA
:101AE0000B4910B5A1F17C020A4CC2E9371237212B
:101AF00006E000EB104342F82130074B00FB0340A7
:101B00000B1EA1F10101F4DC10BD0120E8E700008B
:101B100030290120E119D666CD0D0100401ECAB260
:101B200010F8011F8A4202D00029F9D10020704725
:101B300010B5431E13F8014F002CFBD105E011F83E
:101B4000014B002C03F8014B03D0521EF7D20021A9
:101B5000197010BD30B505460B462A4613F8014BE7
:101B600012F8010B08B1A042F8D01CB1002802D035
:101B70006D1CF1E7284630BD40EA010310B59B0714
:101B80000FD1042A0DD310C808C9121F9C42F8D0E7
:101B900020BA19BA884201D9012010BD4FF0FF3098
:101BA00010BD1AB1D30703D0521C07E0002010BDAE
:101BB00010F8013B11F8014B1B1B07D110F8013B3A
:101BC00011F8014B1B1B01D1921EF1D1184610BD1B
:101BD00040EA0103024630B59B0710D14FF00134B3
:101BE00000E008C208C91D1B9D4315EAC41FF8D0B8
:101BF00013F0FF0102F8011B0DD01B0AF8E711F8E2
:101C0000013B002B02F8013B05D011F8013B002BF2
:101C100002F8013BF3D130BD2DE9F0410546904675
:101C20000E460020044600E0641C44450BD2285DAB
:101C300000F0F8FA0746305D00F0F4FA381A02D1E5
:101C4000295D0029F0D1BDE8F0812DE9F0410E4673
:101C50000546002400E0641C285D00F0E3FA074616
:101C6000305D00F0DFFA381A02D1295D0029F2D187
:101C7000BDE8F08110B5431C02E010F8011B71B102
:101C80008107FAD14FF0013202C88C1A8C4314EA52
:101C9000C211F9D0C01A0A0603D0C01E10BDC01A66
:101CA00010BD0A0401D0801E10BD0902FCD0401EE8
:101CB00010BD40EA010370B59B072ED14FF00136ED
:101CC000042A2AD308C810C9121F9D1B9D4315EA78
:101CD000C61517D0D8B2E1B2401A50EA056110D14A
:101CE00098B2A1B2401A50EA05410AD123F07F40D0
:101CF00024F07F41401A50EA052102D1180EA0EBD2
:101D0000146070BDA342DBD018BA21BA884201D951
:101D1000012070BD4FF0FF3070BD0AB9002070BDCA
:101D200010F8013B11F8014B63B1A3420AD1521ED6
:101D300008D010F8013B11F8014B1BB1A34201D1AF
:101D4000521EEDD1181B70BD421E12F8013F002B30
:101D5000FBD111F8013B002B02F8013BF9D1704790
:101D6000032A40F2308010F0030C00F0158011F8C7
:101D7000013BBCF1020F624498BF11F801CB00F89F
:101D8000013B38BF11F8013BA2F1040298BF00F8F3
:101D900001CB38BF00F8013B11F0030300F067806E
:101DA000083AC0F0088051F8043B083A51F804CBD7
:101DB000A0E80810F5E7121D5CBF51F8043B40F89D
:101DC000043BAFF30080D20724BF11F8013B11F8A8
:101DD00001CB48BF11F8012B24BF00F8013B00F8EC
:101DE00001CB48BF00F8012B7047431A28BF9A4225
:101DF0007FF6B6AF032A1044114440F2268010F05B
:101E0000030F1EBF11F8013D521E00F8013D10F0F6
:101E1000030F7FF4F6AF11F0030300F04B84083A90
:101E2000C0F00B8051F8043D083A51F804CD40F859
:101E3000043D40F804CDFFF7F3BF121D5CBF51F81D
:101E4000043D40F8043DAFF30080D20724BF11F8F1
:101E5000013D11F801CD48BF11F8012C24BF00F855
:101E6000013D00F801CD48BF00F8012C704710B5C6
:101E7000203AC0F00B80B1E81850203AA0E8185082
:101E8000B1E81850A0E81850BFF4F5AF5FEA027C43
:101E900024BFB1E81850A0E8185044BF18C918C0B2
:101EA000BDE810405FEA827C24BF51F8043B40F853
:101EB000043B08BF7047D20728BF31F8023B48BF38
:101EC00011F8012B28BF20F8023B48BF00F8012B76
:101ED000704702F0FF0343EA032242EA024200F0A5
:101EE00002B84FF000020429C0F0128010F0030C79
:101EF00000F01B80CCF1040CBCF1020F18BF00F8FD
:101F0000012BA8BF20F8022BA1EB0C0100F00DB8AB
:101F10005FEAC17C24BF00F8012B00F8012B48BF09
:101F200000F8012B70474FF0000200B513469446AD
:101F30009646203922BFA0E80C50A0E80C50B1F121
:101F40002001BFF4F7AF090728BFA0E80C5048BF35
:101F50000CC05DF804EB890028BF40F8042B08BFD3
:101F6000704748BF20F8022B11F0804F18BF00F8CF
:101F7000012B704710B5044610F0030F08BF11F095
:101F8000030F40F015804FF0013E121FC0F20E808B
:101F900051F8043BA3EB0E0C2CEA030C1CEACE1CFC
:101FA00008BF40F8043BF0D0A1F1040102F10402A3
:101FB000521E08DB11F8013B002B00F8013BF7D162
:101FC0001146FFF78EFF204610BD00004FF0013C88
:101FD00050F8042B51F8043B9A4221D1A2EB0C0398
:101FE000934313EACC1317D150F8042B51F8043B58
:101FF0009A4215D1A2EB0C03934313EACC130BD1F5
:1020000050F8042B51F8043B9A4209D1A2EB0C037F
:10201000934313EACC13DBD04FF00000704700BFAE
:10202000D01A01BAB1FA81F101F0180122FA01F0D7
:10203000CB40C1F12001DBB2C0B2C01A2CFA01F3CF
:10204000D11A914311EAC311E6D1704710B500F0DF
:1020500005F8BDE8104000F057BB0000014900F052
:1020600059BB00009829012030B503681C1404EB0B
:1020700021459BB289B2194495FBF2F402FB14533B
:1020800001EB034191FBF2F302FB131101E05B1E34
:1020900011440029FBDB016003EB044030BD2DE956
:1020A000F04704464FF0FF3A86B00068029060683F
:1020B0000390A0680490E068019020690090656931
:1020C000B5F1804F7EDCB5F1404F7BDB3C22002137
:1020D00002A8FFF7C9FF3C22014603A8FFF7C4FF8F
:1020E0001822014604A8FFF7BFFF411E40F2B55277
:1020F00001A8FFF7B9FF0C22064668460021FFF74A
:10210000B3FF00EB860028443E4D00267D440FE0DF
:102110009A1A491CCDE90012022902D00C2907D1D4
:1021200004E0810704D0521C019201E0401C00969B
:102130000099019B6A5C9A42EADD012906D11C2BB9
:1021400004D1810702D00221CDE90016A0F1460199
:102150008B2940D20199009B00220F4602E0AE5C21
:10216000521C31449A42FADB012B02DD820700D077
:10217000491E40F2B55540F26D16C21700EB92723F
:1021800092106A4300F0030505FB062285070A4406
:1021900000D1521E049D02EB4206DDF80C80A946D8
:1021A00005EBC605184EC5EB0515DDF808C008EBB4
:1021B000850535442E14ADB2C6EB0616C5EB0515E4
:1021C000B60000E007E00CEB850506EB154666F36C
:1021D0001F45360C03D0504606B0BDE8F0877F1C83
:1021E000C4E90430521C072092FBF0F304F11806F6
:1021F00000FB1320A6E803042846C4E90297C4E9BB
:1022000000C8E9E77C8B0600A039CEFD10B500F0D0
:10221000D3FA001D10BD00BFE1250600004870473D
:10222000082A012010B50446FFF7F0FF0068005DA2
:10223000C00602D504F1200010BD204610BD09687B
:102240004A0501D540B27047C905FCD500B27047B8
:1022500009684A0501D5C0B27047C905FCD580B2EE
:1022600070472DE9F0470D4699469246044600F125
:1022700024080168880604D5E06921F01001216076
:1022800000E00120A84202DDA0EB050700E00027E6
:10229000A16907EB050202EB0900A1EB0000A061B8
:1022A0002078C00602D42046FFF76CF9002608E02B
:1022B000D4E901211AF806009047206A401C761CD8
:1022C00020624E45F4DB2078C0060AD52046FFF791
:1022D00059F906E0D4E9012130209047206A401CDA
:1022E0002062381EA7F10107F4DC07E0D4E90121E0
:1022F00018F805009047206A401C2062281EA5F1AE
:102300000105F3DC2046FFF754F92078000602D5DA
:102310000220BDE8F0870120FBE711680268006A2F
:10232000530501D508700BE0D30501D5088007E0FF
:10233000130603D5C217C1E9000201E05206086086
:102340000120704701694A1C02610878704700B596
:102350008FB0CDE901310021059105497944CDE9DE
:10236000031011466846FFF7E9F90FB000BD000001
:10237000E5FFFFFF0A6802F8010B0A607047D1E928
:1023800000239A4202D2531C0B601070704710B5A4
:10239000436913B1AFF3008001E0FFF71CF901209E
:1023A00010BD127800F124010A7000224A70012247
:1023B000EDE711684FF0FF32E9E700002DE9FF5F1C
:1023C00015468A460446DFF8AC80F8440027D8E971
:1023D00000103E46CDE9001011E03AF816106A46AA
:1023E00002A800F091FF411C07D02178890603D58F
:1023F000E269391891420ED8074406F101062078A7
:10240000800602D5E069B84205DDAE42E5DB3AF868
:1024100016000028E1D1A069C01BA0612046FFF78B
:10242000B1F8D8E90010CDE90010002016E03AF824
:1024300018106A4602A800F067FF8146401C0BD0C6
:1024400000250DF1080B05E0D4E901211BF805007A
:1024500090476D1C4D45F7D308F10100B04280460E
:10246000E5DB206A384420622046FFF7A2F8BDE889
:10247000FF9F0000B68806002DE9F0418046D21D7E
:1024800022F007020025D2E90002F52914A612D095
:10249000002A06DA0023D0EB030063EB020211A648
:1024A00008E0D8F800108B0701D50FA602E0490715
:1024B00001D50EA601251146002408F1240704E0E9
:1024C00000F07EF930323A55641C50EA0102F7D12F
:1024D0002B46324621464046BDE8F041FFF7C1BEDB
:1024E000000000002D0000002B0000002000000074
:1024F00030B4002100F124040CE002F0070505F1DE
:1025000030054FEAD20242EA4372655401F10101FB
:102510004FEAD30352EA0305EFD10468002310A267
:10252000250708D504F020040C4304D0C469012316
:102530000CA2641EC46130BCFFF793BE10B5044604
:1025400021461068FFF784FE02462046BDE8104091
:102550000023CDE7D21D22F00701D1E90023C7E710
:1025600000000000300000003A2800D2303820F08F
:102570002002412A01D3A2F13700884201D34FF053
:10258000FF307047026811441378016018467047A5
:10259000D1600549794451610449794411620021AF
:1025A0001161114600F0F8BCEDFFFFFF3BEFFFFFAC
:1025B000426842B1016811F8013B23B1521EC0E9E3
:1025C0000012184670470121C160881E704742689A
:1025D0005AB1C368016843B983688B4205D0491E6C
:1025E000521CC0E90012002070474FF0FF307047C6
:1025F0002DE9F05F824615468B4600270AF101045B
:10260000B9460078302801D09DB113E014F8010BD1
:102610000127782803D0582801D045B10AE00DB130
:10262000102D07D1002714F8010B102502E0082512
:1026300000E00A250026B0460EE005FB080005FB79
:1026400006F101271FFA80F801EB1046B6F5803F2E
:1026500000D3B94614F8010B2946FFF785FF00287F
:10266000EBDABBF1000F05D00FB1641E00E0544659
:10267000CBF80040B9F1000F06D0FFF7CFFD0221E3
:102680000160C81EBDE8F09F48EA0640FAE7431A19
:1026900028BF9A427FF6EBAB104410F0030F1144B1
:1026A0001EBF11F8013D521E00F8013D10F0030F4E
:1026B0007FF4F6AF103AC0F00A8010B531E9185037
:1026C000103A20E91850BFF4F9AFBDE810405307A5
:1026D00024BF31E9081020E9081044BF51F8043D37
:1026E00040F8043D12F0030F08BF7047D20728BF1F
:1026F00031F8023D48BF11F8012C28BF20F8023DF7
:1027000048BF00F8012C7047014900F01DBE0000D1
:10271000C429012070B50C46016800204A1C34D041
:1027200040F2B5553C23B1FBF3F203FB12112160DB
:10273000B2FBF3F103FB112218236260B1FBF3F249
:1027400003FB1211A16046F2E0310A440721B2FBFB
:10275000F1F301FB1321B2FBF5F305FB1322A16199
:102760009900B2F5B77F06D3521EAD10B2FBF5F358
:10277000194405FB13220F4BE261616189077B4419
:102780000CD03B2A0AD3521C08E02C212046FFF72C
:10279000CAFB0120E0600AE0521A401C195C914219
:1027A000FAD9521CC4E903204FF0FF3020622046C2
:1027B00070BD00000A85060000487047282A0120E5
:1027C00030B5B0F10A024FEA900E71F100034EEA03
:1027D000817EB0EB0E0061EB91014FEA101E4EEAD4
:1027E000017E10EB0E0041EB11114FEA102E4EEA64
:1027F000016E10EB0E0041EB11214FEA104E4EEA34
:10280000014E10EB0E0041EB1141401841F1000167
:102810004FEAD00040EA41704FEAD10110EB800549
:102820004FEA810444EA907444EB01046D1944EBCF
:102830000404521BA3414FF0000348BF0A3200D5E5
:1028400030BD401C41F1000130BD70472DE9FF4F04
:102850000C461E464FF0FF378BB0D2E90001DDF881
:1028600060800A908A46C1F30A5505B93D460021A9
:1028700008464FF00000BAF1000F00F4400005DAFE
:1028800000EB80004FF4400101EA50004FEA9059FC
:10289000B9F1010F00DDB9460A9850EA4A000ED09E
:1028A00044F61050A5F2FF3545432F14B8F1000F40
:1028B0001ED07542291E1EDDC9F100021CE0B8F1D0
:1028C000010F4FF0000001D0302103E0F24305E09A
:1028D0002154401CB042FBDB304600220021215431
:1028E0000B99C1F80880C1E900200FB0BDE8F08F56
:1028F000BD1B6D1CDEE74A4600DA694206A800F0FF
:10290000ADFD06AB07CB03AB07C350460A9900F0F9
:102910001DFE8DE80700A0F500501F3800900398B9
:10292000002D09DD42F21F014A46084403A9039025
:10293000684601F07CF808E0A0F500504A461F38D0
:1029400003A90390684601F086F88DE807000004AB
:10295000000C03D04FF0FF30410800E01046B8F102
:10296000000F03D00022009215461FE0751E06D40A
:10297000FFF726FF02F1300262556D1EF8D5B3460F
:102980000122084302D000227F1C04E02078302876
:1029900001D100227F1E002A099787D01DE0112D4A
:1029A00007DAFFF70DFF303262556D1C50EA010265
:1029B000F5D108430FD10021681E05E0235C625C5D
:1029C0006354491C2254401E8142F7DBAB46A81BCE
:1029D000401E099001E0009848B1002004F80B0067
:1029E0000B98099AC0F80880C0E9002B7DE71126F2
:1029F0004FF000085AE72DE9F04F88460446D21DF3
:102A000022F0070191B0D1E90001CDE90A0107F0F8
:102A100083FF02460B98C00F01D02D2007E02068ED
:102A2000810701D52B2002E0202101EAC000032A02
:102A3000099001D0072A05DB03464146204600F0F5
:102A4000CDFC0FE12078800601D5E06900E006208A
:102A5000B8F1650F814606D0B8F1660F18D0B8F10D
:102A6000670F72D132E00020B9F1110F009001DB45
:102A7000112301E009F101030AAA01A90CA8FFF73B
:102A8000E5FEDDE90C70002609F10105834648E00A
:102A900001204B4600904FF000470AAA01A90CA85C
:102AA000FFF7D4FEDDE90DB00C995D46002618B99C
:102AB00009F1010001EB0005B9EB050003D4C0F1F9
:102AC000FF3609F10105A5EB09002BE0B9F1010F73
:102AD00001DA4FF001090020B9F1110F00904846CA
:102AE00001DD112300E003460AAA01A90CA8FFF7A3
:102AF000ADFEDDE90C704D460026834620780007C8
:102B00000AD4AB4500DA5D4601A8012D04DD411968
:102B100011F8011C302907D04F4502DA17F1040FD4
:102B200004DA0120824610E06D1EEEE7002F02DC81
:102B3000ED1B3E4403E0781CA84200DD0546A7EBF0
:102B4000060000F1010A4FF000472078000703D487
:102B5000AA4501DB4FF0FF3A0021B7F1004F0DF11C
:102B600043088DF8431023D002202B23002F01DAD5
:102B70007F422D234FF00A0C011EA0F1010000DC62
:102B80004FB197FBFCF10CFB11720F4602F13002C2
:102B900008F8012DF0E7A8F101000370218809056C
:102BA00001D5452100E06521A0F1010800F8011CD4
:102BB00009980FA9A1EB080707F1070700B1012049
:102BC00000EB050101EBEA70A1693844A1EB0000BC
:102BD000A0F10100A0612078C00602D42046FEF7D3
:102BE000D1FC099830B1D4E901219047206A00F165
:102BF000010020622078C00620D52046FEF7C2FCE6
:102C00001CE0002E04DBB34502DD01A8805D00E07E
:102C10003020D4E901219047206A761C401CBAF18B
:102C2000010A20620AD1FFF7C7FDC0680168405C55
:102C3000D4E901219047206A401C2062281EA5F19A
:102C40000105DEDC07E0D4E9012118F8010B90470B
:102C5000206A401C2062381EA7F10107F3DC2046E1
:102C6000FEF7A7FC022011B040E600002DE9F04F6E
:102C700004460D46D21D22F0070089B0D0E900922B
:102C800048461746394607F047FE0246F80F01D07E
:102C90002D2307E02068810701D52B2302E02021A6
:102CA00001EAC0038DF82030D8B200B10120032A18
:102CB000824601D0072A04DB2946204600F08EFB1D
:102CC00041E12078800601D40D2500E0E569C7F3D5
:102CD0000A560D2D4ADA00214FEA175B08464FF0DD
:102CE0000000002F00F4400007DA00EB800000EB4A
:102CF000D0714FF4400000EA61008115012901DD27
:102D00004FF0FF3100224FEA850CBCF1180F06D3BB
:102D10001346ACF118004FF08052C24003E04FF46C
:102D2000801323FA0CF30CF10C0CBCF1200F04D32C
:102D3000ACF1200C09FA0CF001E007FA0CF00029C4
:102D40004FF0004801DD18B910E00FD140450DD318
:102D500019EB02095F4121B9404502D19F4329EA9D
:102D60000209BBEB175F01D006F1010620880005C0
:102D700002D57C48784402E07A487844193808AA99
:102D8000302302F80A30037C0AF10101002E0AF117
:102D9000020A53546A4602DC4FF0300101E04FF062
:102DA00031014FF001088DF8001002D0A6F2FF3675
:102DB00003E059EA470100D06B4E002D02DC217878
:102DC000090704D54FF002082E218DF80110C446E2
:102DD00000210BE0C7F303433F01C35C491C6D1E98
:102DE00002F80830052908F1010801DA002DF1DCAC
:102DF00000210CE000EB1973491C1B786D1E08299B
:102E000002F8083008F101084FEA091901DA002D2B
:102E1000F0DC2178890602D514E0A8F10108E0452C
:102E200005DD02EB080111F8011C3029F5D0B8F1DD
:102E3000000F07DD02EB080111F8011C2E2901D15A
:102E4000A8F10108002D05DD3E2102F808106D1ED5
:102E500008F10108407C002E02F8080008F1010882
:102E600006DA2D2002F80800764208F1010804E095
:102E70002B2002F8080008F101080A214FF47A73A8
:102E80009E420ADB96FBF3F000F1300703FB10666D
:102E900002F8087008F1010801E0642E0BDB6427DA
:102EA00096FBF7F000F1300307FB106602F80830DC
:102EB00008F1010801E00A2E07DB96FBF1F000F1B2
:102EC000300002F8080008F1010896FBF1F001FB60
:102ED000106000F1300002F80800A16908F1010853
:102EE00008EB050202EB0A00A1EB0000A0612078CC
:102EF000C00602D42046FEF745FB216A08AE01EB6E
:102F00000A00206204E0D4E9012116F8010B904781
:102F1000BAF1010AF7D22078C00602D52046FEF7A2
:102F200031FB6E4609E016F8010B3E280FD0D4E9BC
:102F300001219047206A401C2062B8F10108F2D2BA
:102F40002046FEF736FB09B00220BDE8F08F206A6C
:102F50002844206203E0D4E90121302090476D1E0F
:102F6000EBD3F8E7337F060002FCFFFF10B543699F
:102F700013B1AFF3008001E0FFF720FA012010BD8C
:102F8000128800F1240182840022C2840122EDE72C
:102F900011684FF0FF32E9E72DE9F34F4FF0000AD7
:102FA0000C4656468DB001200C9001F10C000B90A0
:102FB00062690B980121904705002DD0252D2CD05A
:102FC000216A8847C0B162690B9801219047216A44
:102FD00088470028F7D16269411E0B98904700E0AE
:102FE000761CA1690D988847216A88470028F7D187
:102FF000E1690D988847DBE7A1690D988847A842E9
:10300000074601D1761CD3E7E1690D9888477F1CFC
:1030100002D1BAF1000F6FD06AE162690B98002704
:103020003D46394690472A2804D162690B98012110
:1030300090470125DFF8CC8262690B980121904707
:10304000A0F130010A290AD24745E5DC07EB8701E8
:1030500000EB4107303FDFD445F01005ECE7E9060F
:1030600001D46FF000476C280AD04C2814D068288F
:1030700015D06A280DD074281CD07A281AD01DE0EB
:1030800062690B98012190476C2802D045F0040535
:1030900014E045F002050DE045F020050AE0626904
:1030A0000B9801219047682802D045F0080505E0FB
:1030B00045F4006562690B9801219047C4E9015706
:1030C00065283DD019DC582879D00CDC452837D04C
:1030D00004DC252826D041289ED131E046282FD077
:1030E000472899D12CE05B287FD0612828D063281D
:1030F0007BD0642890D159E0F5E06F2847D008DCF8
:1031000066281DD067281BD0692821D06E2816D1CB
:1031100027E0702844D0732867D0752846D07828D7
:103120000DD14CE0A1690D988847252805463FF44C
:1031300069AFE1690D9888476D1C3FF46AAFD7E02D
:103140000D9923466A466FF00100AFF30080C4E09A
:1031500045F0400023464FF000026060A80735D4D8
:103160003DE0206800F1040121600068290501D5D7
:1031700006701DE7290701D5068019E7A90704D5C0
:103180004FEAE671C0E9006112E7066010E745F01A
:10319000400023464FF008026060A80716D41EE0E6
:1031A00040F60E0125EA0100606016E045F040009F
:1031B00023464FF00A026060A80707D40FE045F0ED
:1031C00040006060A80708D5234610220D996FF0D3
:1031D0000100AFF3008080E007E0102223460D9944
:1031E0006FF00100FEF78EFB77E04FF000096328D7
:1031F0004F46C8464B46CB4602D05B2806D038E047
:10320000E80601D40120A060012732E06269D4F809
:103210000CB00B98012190475E2807D14FF00109AF
:1032200049466269D4F80CB00B989047216939B9C6
:1032300000210B4603AA42F82130491C0829FADB79
:10324000D8B3216949B308F1010862690B980121DB
:1032500090475D28F4D1B9F1000F09D0002003A9EF
:1032600051F82020D24341F82020401C0828F7DBE9
:1032700003AB2069002820794FEA40701ED05B46DE
:103280002246CDF80080CDE901970D9900286FF016
:10329000010020DAAFF300801FE0C11700EBD1621C
:1032A00003A9531122F01F0201EB8301821A0B685C
:1032B0000120904003430B60C7E719E00D992246B7
:1032C00000286FF00100009702DAAFF3008004E0FD
:1032D000AFF3008001E0AFF3008000280ADA401C61
:1032E00006D10C9820B14FF0FF300FB0BDE8F08F41
:1032F0005046FAE7E90701D10AF1010A0644002025
:103300000C9055E6CCCCCC0C70B516460C46054658
:10331000FEF77CFF036893F80101012806D0FF2C1B
:103320000FD8185D68B101202C7070BDD3F807016B
:103330003246214603442846BDE8704003F2071395
:1033400018474FF0FF3070BDF0B50D46044685B00C
:10335000FFF732FA0069636994E8C010016803F26C
:103360006C730A188168CDE90363CDE901C7E3688E
:1033700001440093C66A2369406A03FB0613A169EE
:1033800001FB0022284603A100F012F805B02846F0
:10339000F0BD0000257320257325336420252E32CF
:1033A000643A252E32643A252E32642025640A00C0
:1033B0000FB41CB5084B06AA7B44694600900598DB
:1033C000FEF7C5FF044600206946FEF7D3FF2046FE
:1033D0001CBC5DF814FB0000B9EFFFFF2DE9F041C4
:1033E0001F46044603260168072A01F4006004DB37
:1033F00008B116A505E016A503E008B115A500E083
:1034000015A521F010002060A069C01EA0610FB1B9
:10341000401EA0612046FEF7B5F84FB1D4E9012166
:1034200038469047206A401C2062C01C206206E09B
:10343000206AFAE7D4E9012115F8010B9047761EBE
:10344000F8D22046FEF7B5F8BDE8F0814E414E00B7
:103450006E616E00494E4600696E66002DE9F047C8
:10346000814616468AB035487844D0E90023806802
:103470000092CDE90130314878440C38D0E902237C
:10348000006903924FF03702CDE9043041F69B30DA
:10349000014491FBF2F0A0F1800502FB10141B3CEB
:1034A00002D56442012000E00020DFF890A08046B1
:1034B0000027FA44AAF1C60A0DE0E00709D0324617
:1034C000684607EB47010AEB810100F0C4FA8DE87A
:1034D000070064107F1C002CEFD1184F7F44B43FCD
:1034E00017E0E80713D007EB04100DF1180A90E875
:1034F0000E00AAE80E00C068F04201D198190890A9
:10350000324606A903A800F0A6FA03AB07C36D1064
:10351000641C002DE5D132466946B8F1000F03A8BE
:1035200002D000F084FA01E000F095FAC9E9000148
:10353000C9F808200AB0BDE8F0870000D07806007E
:103540000446AFF300802046FDF75EFB5FEA400CC7
:1035500008BF91F0000F4FEA8C234FEAC12243EAE3
:1035600051514FEA1C5018BF00F5F0404FEA3000AF
:1035700018BF41F000415FEA6C5C00F02980BCF1AB
:10358000FF3F08BF40F080407047130C06BF120495
:103590004FF0100C4FF0000C130E04BF12020CF190
:1035A000080C130F04BF12010CF1040C930F04BF9D
:1035B00092000CF1020CD30F04BF52000CF1010C6D
:1035C00011464FF00002A0F11F00A0EB0C00704765
:1035D00011F0004F08BF704731F000413FF4D5AF04
:1035E0000B0C06BF09044FF0100C4FF0000C0B0E33
:1035F00004BF09020CF1080C0B0F04BF09010CF108
:10360000040C8B0F04BF89000CF1020CCB0F04BF1C
:1036100049000CF1010CCCF12003A0EB0C0022FAC4
:1036200003F302FA0CF241EA030100F101007047D2
:1036300020F07F4C80EA030023F07F47ACEB0703C8
:1036400003F57C5300F0004003F1FF032DE98049AE
:103650004FEA154B09B44FEA144325EA0B4E24EA0E
:1036600003480FF2042606EB132749083E785FEA69
:10367000320203FB0667C7F5000707FB06F64FEAB1
:1036800054374FEAD64606F1020607FB066CCCF12A
:10369000005C4FEA1C472CEA074C07FB06F40CFBC6
:1036A00006F504EB15464FEA961634BF00204FF09E
:1036B00000404FEAD13706FB07FC4FEA1C4C0CFBDD
:1036C0000BF7D21B03FB0CF761EB07010CFB0EF7AA
:1036D000B0EB074072EB17420CFB08F734BFA2EBCC
:1036E0000742B2EB074261EB17414FEA0C444FEA45
:1036F000910706FB07FC4FEA1C4C0CFB0BF7B0EBE9
:10370000C74072EB573203FB0CF734BFA2EBC74242
:10371000B2EBC74261EB57310CFB0EF7B0EBC700C1
:1037200072EB57720CFB08F734BFA2EBC702B2EB87
:10373000C70261EB5771039F4FEA816141EA921121
:1037400004EBCC044FEAD1374FEA826206FB07FC58
:1037500042EA90124FEA80604FEA1C4C0CFB0BF7D8
:10376000D21B03FB0CF761EB07010CFB0EF7B0EB70
:10377000074072EB17420CFB08F734BFA2EB07427D
:10378000B2EB074261EB17414FEA8C554FEA9107C4
:1037900004EB9C2406FB07FC4FEA1C4C0CFB0BF7CC
:1037A000B0EBC74072EB573203FB0CF734BFA2EB10
:1037B000C742B2EBC74261EB57310CFB0EF7B0EBDF
:1037C000C70072EB57720CFB08F734BFA2EBC702BD
:1037D000B2EBC70261EB577115EB4C254FEA8161E3
:1037E00041EA92114FEA82624FEAD13742EA9012DF
:1037F00006FB07FC44F100044FEA80604FEA1C4CD2
:103800000CFB0BF7D21B03FB0CF761EB07010CFB66
:103810000EF7B0EB074072EB17420CFB08F734BF12
:10382000A2EB0742B2EB074261EB174115EB1C1507
:103830004FEA813141EA92414FEA823242EA9042B4
:103840004FEA80304FEA0C7644F1000448EA034323
:103850004EEA0B484FF0000EB2EB080C71EB030779
:1038600024BF624639464EEB0E0E4FF0000B001897
:10387000524149414BEB0B0BB2EB080C71EB0307C8
:103880007BF1000B24BF624639464EEB0E0E4FF023
:10389000000B0018524149414BEB0B0BB2EB080CEB
:1038A00071EB03077BF1000B24BF624639464EEBF8
:1038B0000E0E51EA020718BF46F0010616EB0E760F
:1038C00055F1000254F1000103D5BDE88901BDE8BE
:1038D0000088BDE88901BDE80048B619524141EBB6
:1038E0000101A3F10103704780807F7E7D7C7B7A9C
:1038F0007978777676757473727171706F6E6E6D9C
:103900006C6C6B6A6A696868676666656464636341
:1039100062616160605F5F5E5E5D5D5C5C5B5B5AC7
:103920005A59595858575756565555555454535334
:1039300052525251515050504F4F4F4E4E4D4D4D8F
:103940004C4C4C4B4B4B4A4A4A49494948484847DA
:103950004747474646464545454444444443434318
:103960004342424242414141002B26D4770021D0BC
:103970001CB54FEA370703B44FF010004FF01001A9
:103980004FF000000FBCBDE810400BF1010BBBF184
:10399000010F08BF5FEA170722BF12F1010211F100
:1039A00001014FF0004143F1000300F0004043EA01
:1039B00000007047F9D35708DAE746EA064613F1E4
:1039C000400F4FEA16461FDD13F1200FDFBF1643ED
:1039D0000A46002120335B42C8D0C3F1200746EAE3
:1039E000064602FA07F74FEA164646EA0706C3F10B
:1039F000200722FA03F201FA07F721FA03F14FF048
:103A0000000342EA0702B1E746EA020646EA064632
:103A10004FEA164646EA0106BCBF46EA0646360CA1
:103A20004FF000034FF000024FF000019EE72DE938
:103A3000C048934630B491E8380007C831EA400CDA
:103A400048BF34EA430C03D5FFF7F2FDFFF78CFFC4
:103A5000F0BCBDE800882DE9C048934630B491E839
:103A6000380007C810F0804F08BF13F0804F03D113
:103A700000F005F8FFF778FFF0BCBDE8008820F003
:103A80007F4780EA030023F07F4C07EB0C03A3F58C
:103A90007C5300F00040A3F1FE0392F0000F00F011
:103AA000B38095F0000F00F077802DE901494FEACF
:103AB00011404FEA144621EA004800FB06FC24EAC4
:103AC000064708FB06F607FB08F800FB07F718EBAC
:103AD00006484CEB164C4FEA124B18EB07484FEADE
:103AE00015464CEB174022EA0B4E0BFB06FC25EA71
:103AF00006470EFB06F607FB0EFE0BFB07F71EEB59
:103B0000064E4CEB164C4FF000061EEB074E4CEBEE
:103B1000174B18EB0B0840F1000018EB0E0B58EB9D
:103B2000000840F100008F1A4FF000013CBFC9436C
:103B3000661B14BFB5EB040C00213CBFC943F61B48
:103B40004FEA17444EEA8E0E27EA04454FEA1C4717
:103B500004FB07622CEA074C05FB07F70CFB05F694
:103B600004FB0CFC16EB074642EB174216EB0C4627
:103B700042EB1C421BEB060658EB0202414146EAAF
:103B80009E0601D5BDE80189B619524141EB0101FC
:103B9000A3F10103BDE801894FEA14454FEA11473B
:103BA00024EA054621EA074C05FB07F406FB07F764
:103BB0000CFB06F105FB0CFC11EB074144EB174431
:103BC0004FEA124711EB0C4144EB1C4422EA074C2C
:103BD00005FB07F206FB07F70CFB06F605FB0CFCE2
:103BE00016EB074642EB174216EB0C4642EB1C4520
:103BF0006A1854F1000148BF7047B619524141EBB1
:103C00000101A3F10103704795F0000F37D04FEA8F
:103C100011424FEA144721EA024624EA074C02FB0C
:103C200007F106FB07F70CFB06F402FB0CFC14EB98
:103C3000074441EB17414FEA154714EB0C4441EBA5
:103C40001C4125EA074C02FB07F506FB07F70CFBB6
:103C500006F602FB0CFC16EB074645EB174516EB88
:103C60000C4645EB1C42121951F1000148BF704748
:103C7000B619524141EB0101A3F1010370474FEA2C
:103C800014454FEA114724EA054621EA074C05FB93
:103C900007F106FB07F70CFB06F24FF0000605FBE9
:103CA0000CFC12EB074241EB174112EB0C4251EBBB
:103CB0001C4148BF7047921841EB0101A3F1010379
:103CC000704700002DE9F04180460F4615461E461C
:103CD000002D54D06889C82801DDC72400E06C8914
:103CE000C8212848FEF7FDF822462648696803F0F7
:103CF00084FC28463BF064FD224908190422314621
:103D000003F07BFC1F492144081D022206A903F091
:103D100074FCC82322461B49082024F0E3F980B232
:103D2000040001D1BDE8F081224617A11548FDF736
:103D300023FF20B90D2C02D130684EF041F816480F
:103D400090F900000F2809DB134890F900001228B1
:103D500004DC21460B4820F00DFBE3E70F483168F7
:103D60000160214607480BF0F5FC40B10C480760A4
:103D7000BDF818000B49088002482DF027FB00BF52
:103D8000D0E700009C200020736D6172746C696E36
:103D90006B66696E64000000DC060020A005002050
:103DA000900500209605002070B504460D460CB91C
:103DB000204670BD0DB92046FBE70021606925F063
:103DC000F5FBA06810B9A560256002E0A068056059
:103DD000A560A089401CA081606925F0E0FB204619
:103DE000E7E7000070B504460D4604F041F82048AE
:103DF00020A10268032002F039F91D480068C0B113
:103E0000E0001B490968B1FBF0F0401E1F49486003
:103E1000E00017490968B1FBF0F200FB1210C00086
:103E2000E100B0FBF1F01949496841EA0040174947
:103E300048600F480068C0B1E8000D490968B1FB4F
:103E4000F0F0401E12494860E80009490968B1FBDA
:103E5000F0F200FB1210C000E900B0FBF1F00C49D9
:103E6000496841EA00400A494860002070BD0000EE
:103E700000040020524334384D487A43616C695342
:103E80007973436C6B3D25640A00000000600140BB
:103E9000005001407CB504460A4808F0D8F80546B1
:103EA0006946042030F0FCFC2146684630F0B2F947
:103EB0006946062030F0F4FC2946024808F0DFF895
:103EC0007CBD0000440800201CB50A4808F0BFF87B
:103ED00004466946042030F0E3FC684630F0BAF945
:103EE0006946062030F0DCFC2146024808F0C7F89D
:103EF0001CBD00004408002030B50246002000230D
:103F000004E012F8014B60405C1CE3B28B42F8DB2A
:103F100030BD0000F0B504460020B4F5004F0DDAC6
:103F2000B1F5004F0ADCB2F5004F07DC8D18B5F58E
:103F3000004F03DC994201DB012B02DA4FF0FF3026
:103F400034E01B4D2D6864F30E05194E3560194D94
:103F50002D6864F30E05174E35604D1E164E3668FB
:103F600065F30E06144D2E605D1E144E366865F323
:103F70000E06124D2E600125114E35606618114D4A
:103F80002D6866F30E050F4E356066180E4D2D68D0
:103F900066F30E050C4E3560551E0C4E366865F303
:103FA0000E060A4D2E600125094E3560F0BD000059
:103FB0006850014054500140585001405C5001404D
:103FC000000C2A42745001407C500140785001405E
:103FD00000102A422DE9F04105460C4600271A2D13
:103FE00071D2DFE805F0ED0D1C3A3FED464C51591A
:103FF00069715F64767B82878E939A9ECFDEC1C69D
:104000007348006880B2461C71480068C0F30240E3
:1040100000EBC60600F0ECFFB0FBF6F7D3E000F0D3
:10402000E7FFE100B0FBF1F0401E6949096860F369
:104030000F016748016000F0DBFFE100B0FBF1F227
:1040400001FB1200C000E100B0FBF1F16048006824
:1040500061F312405E490860B5E05E48006800F018
:104060000307B0E05B48006864F301005949086049
:10407000A9E004F001005849C1F86C02A3E004F083
:104080000100564908609EE004F001005249C1F861
:104090007802C1F8700296E004F001004F49091D52
:1040A000086090E04E48806900F01F078BE04C48A4
:1040B000806B00F0030786E001204749C1F87402D5
:1040C000C1F87C027FE07BE00120444908310860B0
:1040D00079E044480068C0F30E0774E04148006886
:1040E00064F30E003F4908606DE03F480068C0F38C
:1040F0000E0768E03C48006864F30E003A49086027
:1041000061E03A480068C0F30E075CE03748006899
:1041100064F30E003549086055E001203449086019
:1041200051E034480068C0F30E0033490968C1F318
:104130000E01401A31490968C1F30E012E4A126876
:10414000C2F30E02891A411A26480068C0F30E0015
:10415000401C014423480068C0F30E00401C91FB42
:10416000F0F200FB12172EE004F0010024498861F0
:1041700029E0204800682149096860F30E011F48C2
:10418000016020E044B104F00300401E1D490860B6
:104190000120091F086003E000201A49091F086078
:1041A00011E044B104F00300401E174908600120EB
:1041B000091F086003E000201349091F086002E09E
:1041C0004FF0FF3700BF00BF3846BDE8F081000068
:1041D000045001401C50014014002A4280062A422B
:1041E00000500140585001405C500140785001405F
:1041F00000102A4264500140545001406850014070
:1042000000002A42040A2A42040E2A422DE9F04103
:1042100004460D4616461F46B4F5167F0AD33448A9
:10422000844207D8052D05DB082D03DC022E01DCB6
:10423000022F03DD4FF0FF30BDE8F081681F2D49EC
:10424000096860F301012B4801602EB101202A4961
:104250008860701EC86004E0012027498860002043
:104260008860781E244908610120486100F0C0FE82
:10427000E100B0FBF1F0401E2049096860F30F0136
:104280001E48016000F0B4FEE100B0FBF1F201FB5A
:104290001200C000E100B0FBF1F11848006861F3C2
:1042A0001240164908601648006840F0080014499A
:1042B00008600120104988610420012181404209E1
:1042C0004FF0E02303EB8202C2F8001100BF002090
:1042D0000C49C1F870020C4908600A49C1F878021B
:1042E0000120C1F86C020849091F08600020A3E7FB
:1042F000C0C62D000050014000002A420450014079
:104300000090014014002A4284062A422DE9F74F0A
:1043100082B080460F46002400F06AFEC6000021ED
:104320000120FFF757FEB6FBF0F000900CF052FCB6
:10433000049900EB010A00BF009801908AE06448EC
:104340000068C0F30E0563480068C0F30E096248B8
:104350000068C0F30E00A9EB00005F490968C1F3D3
:104360000E01691A411A5D480068C0F30E00401C36
:1043700001445A480068C0F30E00401C91FBF0F263
:1043800000FB1216002E62DD381BB04201D9304608
:1043900000E0381B0646A9EB050000280CDC4E485F
:1043A0000068C0F30E004D490968C1F30E010844CE
:1043B000401C401BB04207DB08EB04003246484972
:1043C0002944FDF7CDFC23E043480068C0F30E000C
:1043D00042490968C1F30E010844401CA0EB050BDB
:1043E00008EB04005A463E492944FDF7B9FCA6EB08
:1043F0000B02394B1B68C3F30E03DFF8E4C003EB79
:104400000C0104EB0B0303EB0800FDF7A9FC00BF54
:10441000A81931490968C1F30E01411A2F480068F3
:10442000C0F30E00401C91FBF0F200FB12102A4971
:104430000968C1F30E01084485B22548006865F398
:104440000E002349086034440098019002E001986E
:10445000401E0190019810B1BC42FFF470AFA7421A
:1044600000D128E00CF0B6FBB0EB0A001AD50CF036
:10447000B1FBAAEB0000049001210820FFF7AAFD80
:1044800041F6FF70FFF706FD00BFEFF3058028B986
:1044900000210846049A30F00BFC00E000BFFFF753
:1044A00013FD00E000BFBC4205D20CF093FBB0EB63
:1044B0000A003FF541AF00BF01210820FFF78AFD48
:1044C00024B94FF0FF3005B0BDE8F08F2046FAE781
:1044D0006850014064500140545001405850014020
:1044E000008001202DE9F0470546894600248E48CA
:1044F000806900287BD08D480068C0F30E00B9FBAE
:10450000F0F669E08A48806B00B965E08948006888
:10451000C0F30E0A88480068C0F30E078748006899
:10452000C0F30E0050450FD1804B1B68C3F30E0241
:104530002919824B1B68C3F30E03DFF804C203EB97
:104540000C00FDF70DFC24E07C480068C0F30E0071
:1045500076490968C1F30E010844401CA0EB0A0823
:104560002919424676485044FDF7FAFB6F4B1B6809
:10457000C3F30E03A3EB080204EB080359196F4BB6
:104580001B68C3F30E03DFF8B8C103EB0C00FDF7A3
:10459000E7FB66480068C0F30E00384467490968C5
:1045A000C1F30E01411A61480068C0F30E00401CBF
:1045B00091FBF0F200FB12116048006801445E4874
:1045C000006861F30E005C49086058480068C0F359
:1045D0000E000444761E00BF002E93D1534800689D
:1045E000C0F30E00B9FBF0F100FB119675E077E027
:1045F00050480068C0F30E0A4F480068C0F30E0729
:104600004A480068C0F30E004C490968C1F30E0126
:10461000AAEB0101084449490968C1F30E01791A5E
:10462000411A42480068C0F30E00401C91FBF0F2B2
:1046300000FB1218B04500D24FE040480068C0F3BC
:104640000E003A490968C1F30E010844401CB9192B
:10465000884206D32919324639483844FDF780FB91
:1046600020E036480068C0F30E0030490968C1F305
:104670000E010844401CA0EB0708291942463048A7
:104680003844FDF76DFBA6EB080204EB080359194B
:104690002A4B1B68C3F30E03DFF8A4C003EB0C0026
:1046A000FDF75EFBB81925490968C1F30E01411AEF
:1046B0001E480068C0F30E00401CB1FBF0F200FB86
:1046C00012111E48006801441B48006861F30E0087
:1046D000194908603444002600BF002E88D11BE031
:1046E00004E02046641C285C1649086316480068EC
:1046F00008B94C45F5D30120144908600AE004E0EC
:104700002046641C285C0F4908630F48006808B9FC
:104710004C45F5D34C45F2D301200C4908310860D3
:104720002046BDE8F087000000002A427850014092
:1047300084102A42845001407C5001407450014052
:10474000008001200050014004082A4280062A42CD
:104750002DE9F04F8DB006464FF0000800254FF4CC
:10476000C019344606F1320A002328223146484651
:104770001DF06AFA09F1280900BF00BF39E006F010
:1047800045F805F50070216A814202D2206A471B74
:1047900001E04FF400774FF400715046FDF7A1FBA4
:1047A00000233A46514648461DF04EFA42463946E5
:1047B00050461DF01FFC804643461EA101A8626AB8
:1047C000FCF7AEFE2248006890F8840201280AD166
:1047D00001A8FDF74FFA83464FF47A735A4601A9B0
:1047E000092025F020FB3D44B944B5F5002F00DD3C
:1047F00005E0206AA84202D9206A0028BFD100BF84
:104800001348006890F88402012806D14FF47A73A7
:10481000022210A1092025F006FB606A404505D15F
:10482000206A18B1206A0DB0BDE8F08F4FF0FF305C
:10483000F9E700002020435243203A5B25645D2CB9
:104840002043616C633A205B25645D0D000000002D
:10485000600600200A0D00002DE9F74F82B00446E3
:104860008A464FF480190025A846002600200190B2
:10487000274600BF05F0CAFF0023382221464846DC
:104880001DF0E2F9002800DA1AE037A1381DFDF723
:104890009DFB20B138A1381DFDF798FB38B94FF0CA
:1048A0000108786ACAF80000B96A04980160B86A19
:1048B000064409F138096D1C386808B1642DD9DB4C
:1048C00000BFC5EBC50006EBC006B8F1010F03D170
:1048D00016B1B6F5C22F03D9002005B0BDE8F08FA0
:1048E0000020054680464FF480191BE005F08EFF3E
:1048F00005F50070B04202D9A6EB050801E04FF4BF
:10490000007800234246214648461DF09DF90028C4
:1049100000DA09E041462046019A1DF06BFB019048
:104920004544C144B542E1D300BF002308222146DB
:1049300048461DF089F904F1020BDBF800100198DC
:1049400081420BD12078AA2808D16078882805D127
:10495000A079AA2802D1E079882802D04FF0FF3050
:10496000BBE70120B9E700002F696E6465785F63DB
:104970006E2E68746D6C00002F696E6465785F65DB
:104980006E2E68746D6C00002DE9F05F04464FF4E4
:10499000C019002500270026AA46A04600BF05F042
:1049A00035FF00233822214648461DF04DF90028E6
:1049B00000DA17E033A108F10400FDF707FB28B186
:1049C00034A108F10400FDF701FB00B90127D8F874
:1049D0002800064409F138096D1CD8F8000008B118
:1049E000642DDCDB00BFC5EBC50006EBC006012F64
:1049F00003D116B1B6F5C22F02D90020BDE8F09F51
:104A00000020054607464FF4C0191AE005F0FEFEE7
:104A100005F50070B04201D9771B01E04FF4007733
:104A200000233A46214648461DF00EF9002800DAD8
:104A300009E05246394620461DF0DCFA82463D44E4
:104A4000B944B542E2D300BF0023082221464846BC
:104A50001DF0FAF804F1020BDBF8000050450BD111
:104A60002078AA2808D16078882805D1A079AA28BA
:104A700002D1E079882802D04FF0FF30BEE7012054
:104A8000BCE700002F696E6465785F636E2E687402
:104A90006D6C00002F696E6465785F656E2E6874BA
:104AA0006D6C000010B504461649D1F86C12D9B1EE
:104AB0001449D1F8701259B11349496831B11249FA
:104AC0000968491C114AB2FBF1F01AE00F4818E0DE
:104AD0000D49496831B10C490968491C0C4AB2FBBF
:104AE000F1F00EE00A480CE000F02EF844B9064957
:104AF000496831B104490968491CB0FBF1F000E094
:104B0000044810BD14003E4200F0014000B4C4044B
:104B100000D8B805006CDC0206498968C0F30B02B6
:104B20001143044A91601146C96841EA1031D160CD
:104B30007047000000F00140024909690143014A41
:104B40001161704700F001403EB502F019F90546C9
:104B500001202349C1F8E802284602F009F90120A2
:104B60002049C1F864034FF47A71684605F04EFDA0
:104B700008E0684602F0BCF820B11BA030F012FF3C
:104B800000203EBD1748D0F8E4030028F1D01A48B1
:104B9000446A01201349C1F868034FF47A716846EA
:104BA00005F034FD08E0684602F0A2F820B10EA03E
:104BB00030F0F8FE0020E4E70A48D0F8E4030028CB
:104BC000F1D10849C1F868030C48406810F01F0F84
:104BD00001D1A003D5E743F6095104FB01F0D0E76A
:104BE000180044421C003E4231532054696D656FE9
:104BF0007574210A0000000000F0014018200240F6
:104C000038B5144988682BF033FD044618E014F0D9
:104C1000FF0F08D0E0B2FF2805D00E4908682BF03E
:104C200027FDA04200D10AE020462BF021FD009094
:104C3000009800F02DF808B9009838BD00BF641C3A
:104C40000449C8682BF014FDA042E0D20020009077
:104C50000098F2E7F03C002070B5054600240CE017
:104C6000094901EB441006222946FCF785FF18B9D3
:104C7000054800EB441070BD641C0448006AA04263
:104C8000EED80020F7E70000243B0020F03C002095
:104C900001B500210BE0094800EB41100069009AC2
:104CA000904203D1054800EB411008BD491C04485F
:104CB000006A8842EFD80020F7E70000243B00207C
:104CC000F03C002010B5A0210F48FDF72CF918F09A
:104CD00015FA0E480068B0B953F0FEFA0B490860A7
:104CE00008460068007A40F02000096808724322F4
:104CF00007490648006853F027F900220549034890
:104D0000006853F0F7FA10BD243B00204415002042
:104D1000ACA4060025A7000010B5202005F082FFF6
:104D200002480068401C0149086010BD8C04002046
:104D300010B504480068401E0249086001D105F022
:104D400071FF10BD8C0400200149087070470000FD
:104D50002D08002010B50120FFF7A4FE10BD0000B3
:104D60002DE9F04105460C4600270E2D7DD2DFE8E7
:104D700005F07C07163D42494E54595F7077656ACD
:104D80003D48006880B2461C3B480068C0F30240C2
:104D900000EBC606FFF7DEFFB0FBF6F768E0B4F500
:104DA000966F02D33548844202D94FF0FF375FE057
:104DB000FFF7D0FFE100B0FBF1F0401E2E4909687B
:104DC00060F30F012C480160FFF7C4FFE100B0FB66
:104DD000F1F201FB1200C000E100B0FBF1F1264846
:104DE000006861F312402449086041E024480068EB
:104DF00000F003073CE02248006864F3010020490A
:104E0000086035E001201F49C1F8E00330E004F0FC
:104E100001001D49C1F86C022AE004F001001B49A1
:104E2000086025E004F001001749C1F870021FE096
:104E300004F001001549091D086019E01448806953
:104E400000F01F0714E01248806B00F003070FE02A
:104E50000BE001200C49C1F87402C1F87C0207E0A4
:104E600001200A490831086002E04FF0FF3700BF17
:104E700000BF3846BDE8F08104600140C0C62D0087
:104E80001C60014020002C4214002C4280062C4261
:104E9000006001402DE9F04104460E4615461F46CC
:104EA000701F2C49096860F301012A4801602DB187
:104EB000012029498860681EC86004E00120264955
:104EC000886000208860781E2349086101204861BD
:104ED000FFF740FFE100B0FBF1F0401E1F490968F9
:104EE00060F30F011D480160FFF734FFE100B0FBE4
:104EF000F1F201FB1200C000E100B0FBF1F1174834
:104F0000006861F31240154908601548006820F0F8
:104F1000030013490860012012490862C86312495E
:104F2000C1F87002C1F8780200201049086003201F
:104F30000121814042094FF0E02303EB8202C2F8D5
:104F4000001100BF01200849C1F86C020020BDE833
:104F5000F08100000060014000002C42046001402C
:104F60001C6001400060014014002C4284062C4269
:104F700001460548006810B14FF0FF307047034804
:104F8000006908700120F9E780042C4200600140AC
:104F900030B50246002011E0114B1B682BB90346C7
:104FA000401CD35C0F4C236308E00F4B1B6823B9F4
:104FB00001230E4C23600023236000BF8842EBD303
:104FC000074B1B1F1B684BB900BF074B1B68002B0F
:104FD000FBD10123054C23600023236030BD00007A
:104FE00004082C420060014004072C4280062C4239
:104FF00010B50120FFF756FD10BD000005480178EF
:1050000001F03F013F2901D10020704701F03F002E
:10501000FBE70000777F7C0070B5044601F0B0FE2E
:1050200005460020144908601449C1F814029CB1D7
:10503000012C10D0022C05D0032C14D103201049D0
:10504000086011E000200E4908604FF003000B4992
:10505000C1F80C0208E000BF0020094908600749B8
:10506000C1F80C0200E000BF00BF01200249086047
:10507000284601F07DFE70BD002202400020024063
:1050800010220240FF2803D10021074A1160704717
:105090000121054A11600549096860F38F31034A0F
:1050A000116000BFF3E70000B4160442B4200040D2
:1050B000FF2803D10021074A116070470121054AEA
:1050C00011600549096860F35241034A116000BF4D
:1050D000F3E70000C0160442B4200040FF2803D1CB
:1050E0000021074A116070470121054A11600549F6
:1050F000096860F30921034A116000BFF3E700006B
:105100009C160442B4200040FF2803D10021074A26
:10511000116070470121054A11600549096860F373
:10512000CC21034A116000BFF3E70000A816044237
:10513000B420004070B504460D46FCF735F805482C
:1051400050F82400A843034941F82400FCF72AF84A
:1051500070BD000000200040B1F5004F75D02EDC7E
:10516000802973D013DC082971D009DCB1F1004F1C
:105170006ED0012957D002295ED0042969D16AE096
:1051800010297DD020296FD04029F7D191E0B1F5C9
:10519000006F6AD009DCB1F5807F67D0B1F5007F80
:1051A00077D0B1F5806FE9D1AEE0B1F5805F71D015
:1051B000B1F5005F6FD0B1F5804FDFD1C8E0B1F538
:1051C000000F69D017DCB1F5002F6FD009DCB1F505
:1051D000803F6CD0B1F5003F6AD0B1F5802FCDD1C2
:1051E000DAE0B1F5801F76D0B1F5001F74D0B1F5CB
:1051F000800FC3D1F4E0B1F1006F6ED009DCB1F1E2
:10520000807F6BD0B1F1007F69D0B1F1806FB5D1F3
:105210000AE1B1F1805F75D0B1F1005F73D0B1F1F7
:10522000804FABD124E19D4A52F8202022F00102A8
:105230009A4B43F820202EE1984A52F8202022F081
:105240000202964B43F8202025E18AE03AE00EE086
:1052500017E11FE114E0914A52F8202022F00402E5
:105260008E4B43F8202016E117E056E038E08B4AD9
:1052700052F8202022F00802884B43F820200AE14F
:10528000864A52F8202022F01002844B43F8202056
:1052900001E12EE04AE052E0ABE0804A52F82020E3
:1052A00022F020027D4B43F82020F4E07DE061E015
:1052B00069E07A4A52F8202022F04002774B43F806
:1052C0002020E8E0754A52F8202022F08002734B3B
:1052D00043F82020DFE071E079E0AEE092E09AE070
:1052E0006E4A52F8202022F480726C4B43F8202042
:1052F000D1E06A4A52F8202022F40072674B43F84A
:105300002020C8E0A2E0AAE0644A52F8202022F45B
:105310008062624B43F82020BDE0604A52F82020B2
:1053200022F400625D4B43F82020B4E05B4A52F85F
:10533000202022F48052594B43F82020ABE0574AFA
:1053400052F8202022F40052544B43F82020A2E0CF
:10535000524A52F8202022F48042504B43F8202039
:1053600099E04E4A52F8202022F400424B4B43F879
:10537000202090E0494A52F8202022F48032474B06
:1053800043F8202087E0454A52F8202022F40032DA
:10539000424B43F820207EE0404A52F8202022F47D
:1053A00080223E4B43F8202075E03C4A52F82020F2
:1053B00022F40022394B43F820206CE0374A52F89F
:1053C000202022F48012354B43F8202063E0334A3A
:1053D00052F8202022F40012304B43F820205AE0EB
:1053E0002E4A52F8202022F480022C4B43F8202031
:1053F00051E02A4A52F8202022F40002274B43F8B9
:10540000202048E0254A52F8202022F08072234BC9
:1054100043F820203FE0214A52F8202022F0007279
:105420001E4B43F8202036E01C4A52F8202022F080
:1054300080621A4B43F820202DE0184A52F82020B1
:1054400022F00062154B43F8202024E0134A52F862
:10545000202022F08052114B43F820201BE00F4AFD
:1054600052F8202022F000520C4B43F8202012E08A
:105470000A4A52F8202022F08042084B43F82020AC
:1054800009E0064A52F8202022F00042034B43F87C
:10549000202000E000BF00BF704700000020004057
:1054A000FF2803D10021134A116070470121114ADE
:1054B000116020B1012809D0022817D10EE0002187
:1054C0000D4A11600B4A121D116010E000210A4ABA
:1054D00011600121074A121D116008E00121064AEE
:1054E00011600021034A121D116000E000BF00BFDF
:1054F00000BFDAE78C1604425017044210B5044688
:10550000FF2C03D100201849086010BD0120164966
:10551000086024B1012C12D0022C20D117E0002009
:10552000124908601049091D0860FFF775FD104811
:10553000006820F002000F49C1F8340110E000209B
:105540000A49086001200849091D086008E0012097
:105550000649086000200449091D086000E000BFFA
:1055600000BF00BFD1E70000941604425417044264
:1055700034010240000002400146024850F8210078
:10558000704700000020004030B504460D46A11CC5
:10559000C8B2294600F06EF930BD30B504460D465C
:1055A00029462046FFF7D8FD30BD70B504460E46AB
:1055B0001546012D05D1611CC8B2314600F05AF9DB
:1055C00004E0611CC8B23146FFF7C6FD31462046F3
:1055D00000F050F901211E2000F034F970BD00B533
:1055E0000246D11CC8B2FFF7C7FF00BD38B5012382
:1055F0001B4A1C49142022F01FF880B123F028FF19
:10560000044640F24F40184B224618A10090082053
:1056100000F02CFD1AA1082000F028FD38BD194823
:10562000006890F89002C0B10123174A0D49C031BB
:10563000172022F001F880B123F00AFF044640F25F
:105640005740094B224609A10090082000F00EFDAA
:105650000BA1082000F00AFDE0E700BFDEE7000034
:10566000E57C020040000008355606005B202564FA
:10567000206572726F722025732025645D00000022
:105680000A00000060060020B1F4010010B50446D5
:10569000FF2C03D100206949086010BD0120674933
:1056A00008606748006864F315506549086034B1C4
:1056B000012C2DD0022C5ED0032C7DD186E004215C
:1056C0000846FFF737FD04210620FFF733FD0421CC
:1056D0000720FFF72FFD10210420FFF72BFD1021DD
:1056E0000620FFF727FD10210720FFF723FD0821E3
:1056F0000420FFF71FFD08210620FFF71BFD0821EE
:105700000720FFF717FD0821052000F0A1F891E020
:105710004FF400210420FFF70DFD4FF40021062077
:10572000FFF708FD4FF400210720FFF703FD4FF4BA
:1057300000110420FFF7FEFC4FF400110620FFF7D4
:10574000F9FC4FF400110720FFF7F4FC4FF480112F
:105750000420FFF7EFFC4FF480110620FFF7EAFC6E
:105760004FF480110720FFF7E5FC4FF4801105206E
:1057700000F06EF85EE020210E20FFF7DBFC202118
:105780001020FFF7D7FC20211120FFF7D3FC0821C0
:105790000E20FFF7CFFC08211020FFF7CBFC0821DB
:1057A0001120FFF7C7FC10210E20FFF7C3FC1021CA
:1057B0000846FFF7BFFC00E03BE010211120FFF797
:1057C000B9FC10210F2000F043F833E04FF48011B2
:1057D0000E20FFF7AFFC4FF480111020FFF7AAFC5A
:1057E0004FF480111120FFF7A5FC4FF480010E202B
:1057F000FFF7A0FC4FF480011020FFF79BFC4FF453
:1058000080011120FFF796FC4FF400110E20FFF7E6
:1058100091FC4FF400111020FFF78CFC4FF40011A5
:105820001120FFF787FC4FF400110F2000F010F853
:1058300000E000BF00BF00BF2FE70000CC1604420D
:10584000B4200040014A42F8201070470020004078
:1058500070B504460D46FBF7A7FC054850F8240038
:105860002843034941F82400FBF79CFC70BD00006D
:1058700000200040B1F5004F77D02EDC802975D094
:1058800013DC082973D009DCB1F1004F70D0012975
:1058900057D002295FD004296BD16DE0102969D05F
:1058A000202968D04029F7D199E0B1F5006F77D071
:1058B00009DCB1F5807F74D0B1F5007F72D0B1F50D
:1058C000806FE9D1BAE0B1F5805F6CD0B1F5005FCF
:1058D0006AD0B1F5804FDFD1DCE0B1F5000F6ED0BA
:1058E00017DCB1F5002F6BD009DCB1F5803F68D033
:1058F000B1F5003F70D0B1F5802FCDD1F6E0B1F514
:10590000801F6AD0B1F5001F68D0B1F5800FC3D1F8
:1059100018E1B1F1006F76D009DCB1F1807F73D06E
:10592000B1F1007F71D0B1F1806FB5D136E1B1F145
:10593000805F6BD0B1F1005F69D0B1F1804FABD126
:1059400058E1B94A52F8202022F00102521CB64B0D
:1059500043F8202065E1B44A52F8202022F00202E8
:10596000921CB14B43F820205BE19EE041E00DE04A
:105970004BE155E119E025E0AB4A52F8202022F036
:105980000402121DA84B43F820204AE1A64A52F80F
:10599000202022F008020832A34B43F8202040E1E7
:1059A00057E035E03FE05FE069E09F4A52F8202091
:1059B00022F0100210329C4B43F8202031E1CCE061
:1059C0009FE07DE0984A52F8202022F02002203209
:1059D000954B43F8202024E17DE09DE0A7E0924A2A
:1059E00052F8202022F0400240328F4B43F8202012
:1059F00017E18D4A52F8202022F0800280328A4B33
:105A000043F820200DE1D4E0B2E0BCE0DCE0E6E0C9
:105A1000854A52F8202022F4807202F58072824B6F
:105A200043F82020FDE0804A52F8202022F4007242
:105A300002F500727C4B43F82020F2E07A4A52F8DB
:105A4000202022F4806202F58062774B43F8202008
:105A5000E7E0754A52F8202022F4006202F5006265
:105A6000714B43F82020DCE06F4A52F8202022F4EA
:105A7000805202F580526C4B43F82020D1E06A4AF4
:105A800052F8202022F4005202F50052664B43F8EF
:105A90002020C6E0644A52F8202022F4804202F519
:105AA0008042614B43F82020BBE05F4A52F820203F
:105AB00022F4004202F500425B4B43F82020B0E0A4
:105AC000594A52F8202022F4803202F58032564B97
:105AD00043F82020A5E0544A52F8202022F4003256
