:020000040000FA
:10000000000400203D1400004314000045140000CB
:10001000611400007D14000099140000000000002D
:10002000000000000000000000000000E3100000DD
:1000300000000000000000005D110000F158050004
:10004000050D00000000000000000000D10D0000C0
:10005000BD0F0000000000009D0D0000000000002A
:1000600000000000000000006150010000000000DE
:100070000000000000000000090C0000000000006B
:10008000FFFFFFFFFFFFFFFFFFFFFFFFFFFFFFFF80
:10009000FFFFFFFF12FFFFFFFFFFFFFFFFFFFFFF5D
:1000A00000F002F800F0A0FD0AA090E8000C8244E5
:1000B0008344AAF10107DA4501D100F095FDAFF2C2
:1000C000090EBAE80F0013F0010F18BFFB1A43F036
:1000D000010318473C0300005C0300000A444FF092
:1000E000000C10F8013B13F0070408BF10F8014B97
:1000F0001D1108BF10F8015B641E05D010F8016BDC
:10010000641E01F8016BF9D113F0080F1EBF10F83F
:10011000014BAD1C0C1B09D16D1E58BF01F801CB62
:10012000FAD505E014F8016B01F8016B6D1EF9D5E5
:100130009142D6D370470000103A24BF78C878C1E6
:10014000FAD8520724BF30C830C144BF04680C60DD
:100150007047000070B5049CA14D286142EA8115EA
:100160009F4EB5613546EB61EC6001253562002597
:10017000356200BF9A4DED6A15F0010FFAD170BDDE
:1001800038B50446002534B1012C08D0022C12D019
:10019000032C23D11BE000209149086421E0904802
:1001A000006C38B90020E02302461F210090A320F4
:1001B000FFF7D0FF15E00020E02302461F2100904A
:1001C000A320FFF7C7FF00208549086409E001204C
:1001D0008349086488640020886402E06FF0250584
:1001E00000BF00BF284638BD30B17D49896841F065
:1001F00008017B4A916005E07949896821F008018E
:10020000774A916070477648406A00F00100704775
:1002100008B50020E023024607210090FF20FFF7E9
:1002200099FF08BD38B500246D48006D10F0010F2E
:1002300001D0FFF7EDFF0020C02302460721009008
:100240000520FFF787FF00BFFFF7DDFF0028FBD188
:10025000634804680020C02302460721009035202F
:10026000FFF778FF00BFFFF7CEFF0028FBD15C4807
:10027000056844EA0524204638BD10B5FFF7D2FFD3
:10028000044614F0010F01D0002010BD0120FCE74E
:100290002DE9F84305460F4600F084FF5048006DF5
:1002A00010F0010F01D0FFF7B3FF012F06D0022F8E
:1002B00006D0032F06D0042F08D105E0AC7A0BE05E
:1002C000EC7A09E02C7B07E06C7B05E000F068FF2E
:1002D0006FF0F800BDE8F88300BF7F2C04D100F078
:1002E0005FFF6FF0F800F5E7FFF79CFF86B226F49A
:1002F000C0764BF68370064004F01F0046EA800685
:1003000014F0400F03D004F0200046EA40263448A1
:1003100046604FF001080020E023024607210090CC
:100320000620FFF717FFA023002207210120CDF8A8
:100330000080FFF70FFF0120FFF756FF00BFFFF718
:100340009CFF0028FBD00020FFF74EFF0120FFF7A5
:1003500017FF00F025FF0020BCE7F8B5064600F0C7
:1003600021FF1F48006D10F0010F01D0FFF750FF73
:10037000FFF758FF84B224F4C0744BF68370044036
:10038000757A05F01F0044EA800415F0400F03D091
:1003900005F0200044EA4024114844600127002071
:1003A000E0230246072100900620FFF7D3FEA0239A
:1003B0000022072101200097FFF7CCFE0120FFF764
:1003C00013FF00BFFFF759FF0028FBD00020FFF705
:1003D0000BFF0120FFF7D4FE00F0E2FE0020F8BD85
:1003E00000600040084900FB01F0084909684FEA35
:1003F00090304FEA912100FB01F05FEA901001D0AC
:10040000401EFDD8704700006EA30100DC080020EC
:10041000F4EB06000000002010200000DC000000CB
:1004200030F00600FCFF012004000000380100004D
:1004300010B503200246084B19684FF6FF03194018
:10044000064B0B4343EA0221034B196000BF08F03F
:10045000C1FE002010BD00000CED00E00000FA0518
:100460002DE9FE4F0027B946A248A3490844A349F5
:10047000086008460068C01DC008C0000860084643
:1004800000689F4908449D49086018219D4801F073
:1004900098FD9A4801689C48401A9C4908609C480D
:1004A000806800F01E00022805D09948806800F09E
:1004B0001E00042802D1DFF85CA20AE0944880689C
:1004C00000F01E00062802D140F2044A01E04FF07D
:1004D000000A4FF0000ABAF1000F7AD0DAE9010100
:1004E00044180CB900BF75E0DAF8008018F0030F6B
:1004F00004D028F0030828F003000444E01CC117CE
:1005000000EB917189108C00A8F11808C1461821E0
:10051000484601F056FDC9F808407C48006884420E
:1005200009D92246794801687BA037F0A5FE6FF013
:100530000600BDE8FE8F71480068404505D808EB0D
:10054000040018307049884205D383A037F094FE28
:100550006FF01500EDE708EB040018306A49884297
:100560000ED208EB040000F118071821384601F0FC
:1005700028FD08EB040018306349081A1838B860E1
:100580005E480068A8EB0000A0F1300424F00704E6
:100590005A4805681821284601F013FD204604EB4F
:1005A000D0714910A960A868284400F118061821E4
:1005B000304601F006FD204604EBD0714910B160D1
:1005C00017B1B86801E004E0002020444F490860FA
:1005D00000BF00BFBAF1000F1FD1484805681821BD
:1005E000284601F0EEFC494800681821C1EB500094
:1005F000A86042480168A86818300E1818213046D3
:1006000001F0DFFC414800681821C1EB5000B060E8
:100610003E48006830383D4908603FB93948466077
:10062000056068602E607560306008E0354847609E
:10063000056068602E60756037607E6038603348A2
:10064000006830498860032028730C20307307B19C
:100650003873B9F1000F02D0082089F80C0005F1B9
:100660001800A96801F0ADFC06F11800B16801F0AE
:10067000A8FC27B107F11800B96801F0A2FCB9F194
:10068000000F2FD04348C9F81000D9F8080000F136
:100690001804E01704EB90500294801201D03EA0A1
:1006A00000E03EA0A346E11704EB9151891207D068
:1006B000A04644464FEAE87108EB9151891200E0E8
:1006C000214609EB0403CDE9001099F80C0010F065
:1006D0000C0F01D032A000E033A001464A4634A0FE
:1006E00037F0CAFD074880683D4908603D49086009
:1006F00000201EE710200000882F0100D0060020F7
:10070000000000209C4A002000000220D4060020A7
:100710000050004004047C004D4D4D3A70726561FC
:100720006C6C6F63206661696C656421206E6F7408
:1007300020656E6F756768206D656D6F727928250D
:10074000642920746F206265207265717569726515
:1007500064282564290D0A004D4D4D3A707265617B
:100760006C6C6F63206661696C656421206D656DDA
:100770006F72792077696C6C206265206F76657284
:1007800077697274652064616E67696F75736C79DF
:100790000D0A0000DFBC21374B00000042000000C2
:1007A00068696768000000006C6F77200000000037
:1007B0004D4D4D3A707265616C6C6F6320257320EE
:1007C0006D656D6F7279205B3078253038582D2D2E
:1007D0003078253038585D20256425730D0A0000D7
:1007E000D8060020DC06002010B500201449C1F80E
:1007F0000C011448006820F4007012490860084693
:10080000006820F00100086000200CF095F901203C
:100810000CF092F90B48006820F4007000F50070AD
:10082000084908600846006820F00100401C086084
:1008300001200349C1F80C0103490860002010BDE4
:1008400008000A4200500040E4080020F8B50825DE
:1008500055F034F800F0C4FC34A037F00DFD17E07B
:1008600039480068009000BF3749009809688842FD
:10087000FAD03548006800903448006800F0B8FCB1
:10088000314800680099401A0090009800B105E0D6
:100890002E48006840002D490860E1D100BF2B4878
:1008A0000068400829490860084604681EE0274897
:1008B000006820432549086023480068009000BF75
:1008C0002149009809688842FAD01F4800680090C2
:1008D0001E48006800F08CFC1B48006800998842A4
:1008E00004D01A480068A043184908602800A5F100
:1008F000010502D060080400D9D1144800683221F3
:10090000B0FBF1F06421B0FBF1F201FB12060F48DD
:10091000006841F28831B0FBF1F70C4803683246B9
:1009200039460BA037F0A8FC0020F8BD00006C6928
:1009300062726174696E672064656C6179206C6FA6
:100940006F702E2E2E0D0A0074090020DC08002086
:10095000000025642E2530326420426F676F4D49B8
:10096000505320286C706A3D2564290D0A00000050
:1009700010B519485AF0C3F9174814305AF0BFF9A6
:10098000154854305AF0BBF91349083908464161FB
:100990000020C86108468162816610480068401CDA
:1009A0000E4908600C4808380D49086043F02CFFD8
:1009B00009480838006B0B490968884204D9064881
:1009C0000838006B0749086007480068401C064962
:1009D0000860002010BD0000F808002080090020F9
:1009E00068090020840900209C09002010B500201F
:1009F000064908604021064801F0E3FA4FF42261FD
:100A0000044801F0DEFA002010BD0000E0150020CF
:100A10003C540020BC0B00200548C0680549086014
:100A20000348006820F00100014908600020704779
:100A3000000002401406002000000000E90700004A
:100A4000310400004D08000061040000710900003D
:100A5000ED090000190A00000000000025E606006C
:100A60000600000001000000655805002CE60600A5
:100A70003EE606006CE606000600000001000000ED
:100A80002958050073E6060094E60600B9E606005C
:100A9000030000000100000099540300BDE60600B9
:100AA000E7E606005DE70600030000000200000024
:100AB000F53F020061E706009FE7060069E80600CF
:100AC0000400000001000000DD3502006EE80600B1
:100AD000A5E8060055E90600050000000100000039
:100AE000455A05005BE906008FE90600ECE90600BF
:100AF0000400000001000000C16B0300F1E90600E2
:100B00002BEA06001FB560460EF050FC1FBD1FB556
:100B100060460EF0A5FC84461FBD1FB560460EF072
:100B2000FBFC84461FBD1FB560460EF099FD1FBD3E
:100B30006E2901F03684702900F0FA85662927F0C5
:100B4000FAA1652927F0F7A1672927F0F4A1612907
:100B500027F0F3A103681B0A28BF41F0800169292F
:100B600000F06885642900F06585752900F06285CC
:100B70006F2901F03787782900F0C685E92901F04F
:100B8000CF86E42901F0CC86F52901F0C986EF294A
:100B900001F03487F82900F0C5850368DB0928BF18
:100BA00041F08001632901F05086732901F05586D8
:100BB000E32902F06382F32902F068820020704783
:100BC0001FB500F0E0FF02F045F80400002000210E
:100BD00066F024F8401C60600020002166F034F8C4
:100BE000E0601FBD10B510BDDFF80CD0FFF7E8FFC7
:100BF00033F030FA02F098FC0004002003B4FFF751
:100C0000F1FF03BCAFF3008010B50DF0C7F814205E
:100C100029F0CCFE40B932480068002804DD304895
:100C20000068401C2E4908602E48006819302D4984
:100C300008602D480068401C2B4908600EF06AF9D6
:100C40002948006828284AD30020274908602748F7
:100C50000068401C25490860002058F035FD044616
:100C6000214608202AF0DEFA21480078C0B9214840
:100C70000078401C40B21F490870084690F90000F7
:100C80001E2822DD1C48007838B1084690F9000083
:100C90003C281ADD2BF062FC17E02BF05FFC14E01F
:100CA00016480068032810DB144800680C280CDC88
:100CB00013480078401C40B211490870084690F96A
:100CC0000000142801DD2BF049FC15F045FE012839
:100CD00001D02BF043FC2BF023FD4DF081F910BD2A
:100CE00020060020040600200806002060070020DF
:100CF000B616002010060020CC0800201816002090
:100D0000110600202DE9F04700243CE004EB4401EB
:100D1000204A52F8210025F089F90546002D00DA15
:100D200030E005F01F01012000FA01F82E0E1F200F
:100D300000EB860000F0FF09484605F06EF8074614
:100D400017EA080F1DD04146484605F03BF804EB72
:100D50004401104A52F8210029F0E8FC04EB440059
:100D60000C4B53F8201004EB440003EB8000426866
:100D70003046904704EB4401064A52F8210029F01E
:100D800017FD00BF641C044800688442BEDBBDE858
:100D9000F0870000044500201C06002010B50CF070
:100DA000C5FF0848006858B10748007818B90748D7
:100DB00000682BF06FFF0548006802490968884702
:100DC00010BD00006C0600207006002060060020A8
:100DD00038B5002400210C2004F0D4FA044614F0A5
:100DE000010F3ED02A480068B8B30AE029480088BD
:100DF000401C2849088008460088B0F5006F00DBD9
:100E00000DE024480088B0F5006F08DA2049096831
:100E1000204A1288881804F0BDFB0128E6D000BFE4
:100E20001D480068002818DC0EF094FB48B900202B
:100E300003460246014600904FF4F55036F0C8FCD8
:100E400006E000231A4619464FF4F55036F08AFEA4
:100E500011480068401C1049086000210A2004F075
:100E600091FA14F01E0F11D014F0020F06D114F0F5
:100E7000040F03D114F0080F00D100BF002105209A
:100E800004F080FA00210A2004F07CFA38BD00004A
:100E9000780600207C0600208006002008B5274840
:100EA000806910F01E0F25D02548D0F8EC0218B14B
:100EB00024A037F0E1F916E02148D0F8F00218B18B
:100EC00027A037F0D9F90EE01D48D0F8F40218B188
:100ED0002AA037F0D1F906E01948D0F8F80210B18D
:100EE0002CA037F0C9F901203049C1F8E00330499E
:100EF000C1F87C021248D0F8E802C0B100BFEFF39D
:100F0000058048B90020034602460146009041F69C
:100F1000016036F05DFC06E000231A46194641F6F2
:100F2000016036F01FFE01202149C1F874022148FA
:100F3000006810B101202049086008BD0060014030
:100F400018002C42467561727420525820657272E6
:100F50006F7220696E746572727570740D0A00008C
:100F60004675617274205258206572726F72206FDC
:100F700076657272756E0D0A00000000467561722A
:100F800074205258206572726F72205061726974B9
:100F9000790D0A004675617274205258206572728C
:100FA0006F72204672616D650D0A000020002C42B0
:100FB00014002C4200072C4288062C4208B52A480F
:100FC000D0F8E802E0B101202849C1F874020021FC
:100FD000082003F05FF800BFEFF3058048B9002058
:100FE00001230246014600904FF4F85036F0F0FB22
:100FF00006E00123002211464FF4F85036F0B2FD0E
:101000001B48806910F01E0F22D01748D0F8EC0260
:1010100010B118A037F030F91348D0F8F00210B131
:101020001BA037F029F91048D0F8F40210B118A02D
:1010300037F022F90C48D0F8F80210B114A037F0BC
:101040001BF901201849C1F8E0030849C1F87C02E6
:101050001648006830B11648006818B101201349DD
:10106000091D086008BD000018002A4214002A4229
:1010700000500140427561727420525820657272AE
:101080006F7220696E746572727570740A00000068
:101090004275617274205258206572726F72206FAF
:1010A00076657272756E0A0020002A4284062A4212
:1010B00000072A4262B6704772B6704761B6704741
:1010C00071B67047401EFDD87047000062B6704789
:1010D00072B6704761B6704771B67047401EFDD852
:1010E00070472C4B19684868B0E8F00F80F3098806
:1010F0004FF0000080F311884EF00D0E7047000095
:1011000000000000044800F108000068006880F357
:10111000088862B600DF000000ED00E00FB54FF474
:1011200080604FF000010968A1EB000101F10101AD
:101130004FF0A50211F8013B401E03D99342F9D0AC
:1011400000F101000349086003494FF48060086022
:101150000FBD0000C4060020C0060020EFF3098088
:101160000C4B1A6820E9F00F506008B54FF02000D2
:1011700080F311885AF0F2F94FF0000080F31188E3
:10118000BDE8084019684868B0E8F00F80F30988A6
:10119000704700006809002062B6704772B6704759
:1011A00061B6704771B67047401EFDD870470000A9
:1011B00062B6704772B6704761B6704771B67047D5
:1011C000401EFDD87047000062B6704772B6704787
:1011D00061B6704771B67047401EFDD87047000079
:1011E00062B6704772B6704761B6704771B67047A5
:1011F000401EFDD87047000062B6704772B6704757
:1012000061B6704771B67047401EFDD87047A0E8C0
:10121000F01F704762B6704772B6704761B670478C
:1012200071B67047401EFDD870472DE9005050E858
:1012300000EFAEF1010E40E800EC9CF0000FF6D19B
:10124000BFF35F8F9EF0000F44BF84468847BFF313
:101250005F8F00BFBDE800902DE9005050E800EF1F
:10126000AEF1010E40E800EC9CF0000FF6D1BFF3A8
:101270005F8F9EF0000F4ABF84464FF0000C8847F6
:101280006046BFF35F8F00BFBDE800902DE90050BE
:10129000BFF35F8F00BF50E800EF0EF1010E40E892
:1012A00000EC9CF0000FF6D1BFF35F8FBEF1000F92
:1012B000DCBF84468847BDE800902DE904504FF01C
:1012C000807250E800EFAEEB020E40E800EC9CF0BC
:1012D000000FF6D19EF0000F1CBF84468847BFF375
:1012E0005F8F00BFBDE804902DE90450BFF35F8F0E
:1012F00000BF4FF0807250E800EF964440E800ECE9
:101300009CF0000FF7D124BF84468847BDE80490C5
:10131000FFF78BFF70472DE90050BFF35F8F00BFD1
:1013200050E800EF0EF1010E40E800EC9CF0000FD9
:10133000F6D19EF0000F04BF8C468847BDE80090B0
:1013400062B6704772B6704761B6704771B6704743
:10135000401EFDD87047000062B6704772B67047F5
:1013600061B6704771B67047401EFDD8704704B52E
:1013700050E8002F40E8001292F0000FF8D14FF033
:10138000000004BD0CB551E8002F024441E80023E1
:1013900093F0000FF7D110460CBD0CB551E8002FAB
:1013A000A2EB000241E8002393F0000FF6D11846AB
:1013B0000CBD0CB551E8002F22EA000241E80023E1
:1013C00093F0000FF6D10CBD0B49D1F800C04A686C
:1013D0005CF8043B1068184442F8040B8C4528BFA5
:1013E000A1F1DC0C8A4228BFA1F1DC02C1F800C0E7
:1013F0004A6020F000407047044F0120DFF8B4D06D
:10140000ADF5805D2C48A0F58060006801B40EF059
:10141000A7F82A4C2A4DAC4209D294E80F0030B408
:1014200043F00103984730BC04F11004F3E7FFF7E1
:10143000C7FBDFF884D0234800470000004622485D
:101440000047FEE71EF0040F0CBFEFF30880EFF338
:1014500009802DE9F00FEFF3088127F068BF70478E
:101460001EF0040F0CBFEFF30880EFF309802DE9A5
:10147000F00FEFF3088127F05ABF70471EF0040FFA
:101480000CBFEFF30880EFF309802DE9F00FEFF3C5
:10149000088127F04CBF70471EF0040F0CBFEFF31C
:1014A0000880EFF309802DE9F00FEFF3088127F0B2
:1014B0003EBF7047FCFF0120000400201004000024
:1014C0003004000055400300FD13000010B5044631
:1014D00000F0E2FE0068005D00F0010010BD10B5F4
:1014E000044600F0D9FE0068005DC00602D504F194
:1014F000200010BD204610BD7CB51D4616460C00D0
:10150000009001D02044401E074B7B442A46694688
:101510000190304601F06FF905461CB10020694684
:1015200001F07CF928467CBD191300000FB41CB5EE
:10153000084B06AA7B4469460090059801F05BF9C8
:1015400004460020694601F069F920461CBC5DF89C
:1015500014FB0000E51200000FB47CB50C0009AAD2
:10156000009001D02044401E084B7B446946019006
:10157000089801F040F905461CB10020694601F0C9
:101580004DF928467CBC5DF814FB0000B912000040
:1015900070B5044685690068C10601D5302600E0B3
:1015A0002026C00708D070BDD4E9012130469047FD
:1015B000206A00F1010020626D1EF5D570BD70B586
:1015C000044685690078C00708D170BDD4E90121BF
:1015D00020209047206A00F1010020626D1EF5D5A1
:1015E00070BD70B50C460546012A05D028788006E6
:1015F00000D5EA69002302E0012305E05B1C934269
:1016000002D2E05C0028F9D1A869E618C01AA861E6
:10161000286A184428622846FFF7BAFF04E0D5E993
:10162000012114F8010B9047B442F8D32846FFF784
:10163000C6FF70BD2DE9F0410646002410687529EB
:10164000314616A511D000F03EFE002803DAC0F1A5
:10165000000013A507E031688A0701D511A502E053
:10166000490704D510A5012401E000F035FE002152
:101670000A2306F1240707E0B0FBF3F203FB120094
:10168000303078541046491C0028F5D123462A46AC
:101690003046BDE8F04100F028BE00000000000028
:1016A0002D0000002B00000020000000F0B40D46CB
:1016B0000188090502D5234C7C4402E0214C7C447E
:1016C0000E34002100F124060BE002F00F074FEA70
:1016D0001212E75D42EA03724FEA1313775401F1E5
:1016E000010152EA0307F0D102780023120704D562
:1016F000702D06D009B1113402232246F0BC00F04F
:10170000F4BD10340123F8E770B504460D462146B8
:10171000106800F0E1FD024629462046BDE8704011
:101720000023C3E7D21D22F00703D3E90023BDE75E
:101730000368126843F0200303600823C361002399
:10174000B4E700003BC706002DE9F05F8946044678
:101750004FF0000ADFF878B1FB44C0F820A0204623
:10176000E1688847002875D0252806D0D4E90121F2
:101770009047206A401C2062F1E700265F46204621
:10178000E16888472028054608DB312D06D207EBA3
:10179000050010F8200C08B10643F0E7B00701D5AA
:1017A00026F00406C4F81CA00027C4F818A02A2DAF
:1017B00009D028460EF0FEFA38B304EB8708303D16
:1017C000C8F8185019E059F8041B204604EB8702AA
:1017D0009161E1688847012F054618D1E06900282A
:1017E00020DA26F020061DE0D8F8180000EB800073
:1017F00005EB40003038C8F818002046E1688847FB
:1018000005460EF0D7FA0028EED1012F0AD02E2D72
:1018100008D12046E16888477F1C0546022F46F024
:101820002006C4DBA069002803DA404246F0010626
:10183000A061F00701D026F010066C2D0BD0682DAA
:1018400009D04C2D39D06A2D35D0742D35D07A2D54
:1018500033D016E038E0E1682F4620468847B8428A
:10186000054609D16C2F26D04FF48060E16806430D
:1018700020468847054604E06C2F1AD04FF480704C
:1018800006430DB3A5F14100192802D8203546F4CE
:1018900000664A462946204626604E46FFF748F92C
:1018A00080B101280BD0F61D26F0070000F10809D1
:1018B00055E74020E4E78020D8E70020D6E706F18E
:1018C00004094CE7284651E7206ABDE8F09F000074
:1018D000C3C606000FB400B58DB010A909900091E1
:1018E0000B904FF0FF300A9000200C90064878448F
:1018F0000690064878446A4607900F9909A801F0B7
:101900009BF80DB05DF814FB671100007F1100001B
:101910002DE9FF5F1D464FF0FF3B91464FF0000859
:101920005F46D5E90146A96901987F1C8847296A65
:10193000824688470028F6D11AF101000CD0002E0B
:1019400024F4C06419DD600614D5BAF12B0F09D058
:10195000BAF12D0F0ED103E0584604B0BDE8F09F58
:1019600044F48064A96901987F1C8847761E8246EA
:10197000002E02DDBAF1300F03D0B9F1000F26D0EE
:1019800032E0A969761E01987F1C44F400748847F0
:10199000002E824605DDBAF1780F06D0BAF1580F55
:1019A00003D0B9F1000F10D01EE0B9F1000F02D042
:1019B000B9F1100F18D1A969761E01987F1C24F483
:1019C000007488478246102002E0082000E00A20C8
:1019D000814609E0A96908FB0908761E01987F1C69
:1019E00044F4007488478246002E05DD494650467F
:1019F00001F00EF80028EDDAE96901988847A005A2
:101A000002D46FF00100A8E7E00727D1600614D5E3
:101A1000600502D5C8F1000000E04046296801F1E8
:101A200004022A600968220501D5087016E0220721
:101A300001D5088012E0086010E0286800F1040178
:101A400029600068210502D580F8008006E02107A2
:101A500002D5A0F8008001E0C0F8008038467CE79D
:101A600070B5064600F020FC0468054630460A22A0
:101A7000002100F002F82C6070BD2DE9F04791467E
:101A80000F4680460446002614F8015B2DB100F095
:101A900003FC0068405DC007F6D12B2D02D02D2D30
:101AA00018D0641E4A463946204600F0F5FF27B19B
:101AB0003968A14201D1C7F800804FF002047105D6
:101AC0000BD54042002803DD00F0EEFB0460A007C8
:101AD000BDE8F08746F48066E4E70028F8DA00F015
:101AE000E3FB04606FF00040F2E72DE9F05F9346FE
:101AF0000F4680460446002600F0D6FBD0F8009042
:101B0000824614F8015B2DB100F0C6FB0068405D11
:101B1000C007F6D12B2D02D02D2D1AD0641E002126
:101B2000CAF800105A463946204600F0B5FF014673
:101B300027B13868A04201D1C7F80080DAF8000068
:101B4000022809D0CAF80090700505D54842BDE8C2
:101B5000F09F46F48066E2E70846F8E70B4910B5C7
:101B6000A1F17C020A4CC2E93712372106E000EBF2
:101B7000104342F82130074B00FB03400B1EA1F13C
:101B80000101F4DC10BD0120E8E70000A44E0120B3
:101B9000E119D666CD0D0100401ECAB210F8011F32
:101BA0008A4202D00029F9D10020704730B503469F
:101BB0001D781DB10A4603E0AC4201D1181A30BDB0
:101BC00012F8014B002CF7D15B1CF1E710B5431E56
:101BD00013F8014F002CFBD105E011F8014B002C4C
:101BE00003F8014B03D0521EF7D20021197010BD2B
:101BF00030B505460B462A4613F8014B12F8010B87
:101C000008B1A042F8D01CB1002802D06D1CF1E749
:101C1000284630BD40EA010310B59B070FD1042AC6
:101C20000DD310C808C9121F9C42F8D020BA19BAA7
:101C3000884201D9012010BD4FF0FF3010BD1AB10C
:101C4000D30703D0521C07E0002010BD10F8013B61
:101C500011F8014B1B1B07D110F8013B11F8014B88
:101C60001B1B01D1921EF1D1184610BD40EA0103A1
:101C7000024630B59B0710D14FF0013400E008C296
:101C800008C91D1B9D4315EAC41FF8D013F0FF01BE
:101C900002F8011B0DD01B0AF8E711F8013B002BDD
:101CA00002F8013B05D011F8013B002B02F8013B83
:101CB000F3D130BD2DE9F041054690460E46002097
:101CC000044600E0641C44450BD2285DFFF707FC86
:101CD0000746305DFFF703FC381A02D1295D002961
:101CE000F0D1BDE8F0812DE9F0410E460546002413
:101CF00000E0641C285DFFF7F2FB0746305DFFF74C
:101D0000EEFB381A02D1295D0029F2D1BDE8F0813D
:101D100010B5431C02E010F8011B71B18107FAD124
:101D20004FF0013202C88C1A8C4314EAC211F9D068
:101D3000C01A0A0603D0C01E10BDC01A10BD0A0486
:101D400001D0801E10BD0902FCD0401E10BD40EA2B
:101D5000010370B59B072ED14FF00136042A2AD318
:101D600008C810C9121F9D1B9D4315EAC61517D040
:101D7000D8B2E1B2401A50EA056110D198B2A1B2CE
:101D8000401A50EA05410AD123F07F4024F07F41F8
:101D9000401A50EA052102D1180EA0EB146070BD64
:101DA000A342DBD018BA21BA884201D9012070BD04
:101DB0004FF0FF3070BD0AB9002070BD10F8013B34
:101DC00011F8014B63B1A3420AD1521E08D010F89A
:101DD000013B11F8014B1BB1A34201D1521EEDD1C1
:101DE000181B70BD421E12F8013F002BFBD111F8E9
:101DF000013B002B02F8013BF9D17047032A40F266
:101E0000308010F0030C00F0158011F8013BBCF19C
:101E1000020F624498BF11F801CB00F8013B38BFB4
:101E200011F8013BA2F1040298BF00F801CB38BFC2
:101E300000F8013B11F0030300F06780083AC0F09E
:101E4000088051F8043B083A51F804CBA0E8081088
:101E5000F5E7121D5CBF51F8043B40F8043BAFF3BB
:101E60000080D20724BF11F8013B11F801CB48BF15
:101E700011F8012B24BF00F8013B00F801CB48BF4B
:101E800000F8012B7047431A28BF9A427FF6B6AF7D
:101E9000032A1044114440F2268010F0030F1EBFA5
:101EA00011F8013D521E00F8013D10F0030F7FF4C0
:101EB000F6AF11F0030300F05186083AC0F00B8032
:101EC00051F8043D083A51F804CD40F8043D40F87B
:101ED00004CDFFF7F3BF121D5CBF51F8043D40F87D
:101EE000043DAFF30080D20724BF11F8013D11F883
:101EF00001CD48BF11F8012C24BF00F8013D00F8C6
:101F000001CD48BF00F8012C704710B5203AC0F051
:101F10000B80B1E81850203AA0E81850B1E81850EA
:101F2000A0E81850BFF4F5AF5FEA027C24BFB1E827
:101F30001850A0E8185044BF18C918C0BDE8104098
:101F40005FEA827C24BF51F8043B40F8043B08BFA1
:101F50007047D20728BF31F8023B48BF11F8012B68
:101F600028BF20F8023B48BF00F8012B704702F061
:101F7000FF0343EA032242EA024200F002B84FF0B4
:101F800000020429C0F0128010F0030C00F01B8046
:101F9000CCF1040CBCF1020F18BF00F8012BA8BF54
:101FA00020F8022BA1EB0C0100F00DB85FEAC17C18
:101FB00024BF00F8012B00F8012B48BF00F8012BCB
:101FC00070474FF0000200B51346944696462039FC
:101FD00022BFA0E80C50A0E80C50B1F12001BFF4E2
:101FE000F7AF090728BFA0E80C5048BF0CC05DF848
:101FF00004EB890028BF40F8042B08BF704748BF96
:1020000020F8022B11F0804F18BF00F8012B704709
:1020100010B5044610F0030F08BF11F0030F40F095
:1020200015804FF0013E121FC0F20E8051F8043BA4
:10203000A3EB0E0C2CEA030C1CEACE1C08BF40F8E4
:10204000043BF0D0A1F1040102F10402521E08DBAE
:1020500011F8013B002B00F8013BF7D11146FFF7C7
:102060008EFF204610BD00004FF0013C50F8042BBD
:1020700051F8043B9A4221D1A2EB0C03934313EA9B
:10208000CC1317D150F8042B51F8043B9A4215D1C8
:10209000A2EB0C03934313EACC130BD150F8042B9F
:1020A00051F8043B9A4209D1A2EB0C03934313EA83
:1020B000CC13DBD04FF00000704700BFD01A01BA3C
:1020C000B1FA81F101F0180122FA01F0CB40C1F11F
:1020D0002001DBB2C0B2C01A2CFA01F3D11A91432D
:1020E00011EAC311E6D17047014900F061BD00005B
:1020F0000C4F012030B503681C1404EB21459BB242
:1021000089B2194495FBF2F402FB145301EB03412D
:1021100091FBF2F302FB131101E05B1E1144002955
:10212000FBDB016003EB044030BD2DE9F0470446C2
:102130004FF0FF3A86B00068029060680390A06894
:102140000490E0680190206900906569B5F1804FC6
:102150007EDCB5F1404F7BDB3C22002102A8FFF77B
:10216000C9FF3C22014603A8FFF7C4FF182201461D
:1021700004A8FFF7BFFF411E40F2B55201A8FFF7C8
:10218000B9FF0C22064668460021FFF7B3FF00EBBB
:10219000860028443E4D00267D440FE09A1A491CD3
:1021A000CDE90012022902D00C2907D104E08107F1
:1021B00004D0521C019201E0401C00960099019B42
:1021C0006A5C9A42EADD012906D11C2B04D1810701
:1021D00002D00221CDE90016A0F146018B2940D2A0
:1021E0000199009B00220F4602E0AE5C521C314474
:1021F0009A42FADB012B02DD820700D0491E40F231
:10220000B55540F26D16C21700EB927292106A43F8
:1022100000F0030505FB062285070A4400D1521E83
:10222000049D02EB4206DDF80C80A94605EBC605CD
:10223000184EC5EB0515DDF808C008EB85053544DB
:102240002E14ADB2C6EB0616C5EB0515B60000E0C0
:1022500007E00CEB850506EB154666F31F45360CCB
:1022600003D0504606B0BDE8F0877F1CC4E90430B7
:10227000521C072092FBF0F304F1180600FB132018
:10228000A6E803042846C4E90297C4E900C8E9E7C0
:1022900024BD0600A039CEFD10B500F0DBFC001D0A
:1022A00010BD00BF7949060000487047384F012033
:1022B00010B5FFF7F9FF006810BD10B50446FFF731
:1022C000F3FF046010BD09684A0501D540B27047AC
:1022D000C905FCD500B2704709684A0501D5C0B2EE
:1022E0007047C905FCD580B270472DE9F0470D460F
:1022F00099469246044600F124080168880604D5F0
:10230000E06921F01001216000E00120A84202DD17
:10231000A0EB050700E00027A16907EB050202EB2F
:102320000900A1EB0000A0612078C00602D420467D
:10233000FFF72EF9002608E0D4E901211AF806007B
:102340009047206A401C761C20624E45F4DB2078C2
:10235000C0060AD52046FFF71BF906E0D4E90121A3
:1023600030209047206A401C2062381EA7F10107E8
:10237000F4DC07E0D4E9012118F805009047206A51
:10238000401C2062281EA5F10105F3DC2046FFF762
:1023900016F92078000602D50220BDE8F08701205A
:1023A000FBE711680268006A530501D508700BE06D
:1023B000D30501D5088007E0130603D5C217C1E98C
:1023C000000201E0520608600120704770472DE9C5
:1023D000FF4F0C461E464FF0FF378BB0D2E900018D
:1023E000DDF860800A908A46C1F30A5505B93D467A
:1023F000002108464FF00000BAF1000F00F4400041
:1024000005DA00EB80004FF4400101EA50004FEA8A
:102410009059B9F1010F00DDB9460A9850EA4A0017
:102420000ED044F61050A5F2FF3545432F14B8F1F5
:10243000000F1ED07542291E1EDDC9F100021CE0EE
:10244000B8F1010F4FF0000001D0302103E0F2435A
:1024500005E02154401CB042FBDB30460022002145
:1024600021540B99C1F80880C1E900200FB0BDE8E4
:10247000F08FBD1B6D1CDEE74A4600DA694206A8F4
:1024800000F0C0FF06AB07CB03AB07C350460A9969
:1024900001F050F88DE80700A0F500501F380090BB
:1024A0000398002D09DD42F21F014A46084403A9A2
:1024B0000390684601F0AFFA08E0A0F500504A46E4
:1024C0001F3803A90390684601F0B9FA8DE80700A8
:1024D0000004000C03D04FF0FF30410800E010462C
:1024E000B8F1000F03D00022009215461FE0751EC0
:1024F00006D400F0B3FB02F1300262556D1EF8D530
:10250000B3460122084302D000227F1C04E0207859
:10251000302801D100227F1E002A099787D01DE0B4
:10252000112D07DA00F09AFB303262556D1C50EA2B
:102530000102F5D108430FD10021681E05E0235C9C
:10254000625C6354491C2254401E8142F7DBAB4657
:10255000A81B401E099001E0009848B1002004F833
:102560000B000B98099AC0F80880C0E9002B7DE7A2
:1025700011264FF000085AE72DE9F04F884604462F
:10258000D21D22F0070191B0D1E90001CDE90A0185
:102590000CF076FE02460B98C00F01D02D2007E00C
:1025A0002068810701D52B2002E0202101EAC0002C
:1025B000032A099001D0072A05DB0346414620463D
:1025C00000F012FD0FE12078800601D5E06900E0FF
:1025D0000620B8F1650F814606D0B8F1660F18D015
:1025E000B8F1670F72D132E00020B9F1110F0090FD
:1025F00001DB112301E009F101030AAA01A90CA8DA
:10260000FFF7E5FEDDE90C70002609F101058346C0
:1026100048E001204B4600904FF000470AAA01A96C
:102620000CA8FFF7D4FEDDE90DB00C995D4600263D
:1026300018B909F1010001EB0005B9EB050003D45D
:10264000C0F1FF3609F10105A5EB09002BE0B9F156
:10265000010F01DA4FF001090020B9F1110F0090CC
:10266000484601DD112300E003460AAA01A90CA88F
:10267000FFF7ADFEDDE90C704D460026834620785D
:1026800000070AD4AB4500DA5D4601A8012D04DD40
:10269000411911F8011C302907D04F4502DA17F112
:1026A000040F04DA0120824610E06D1EEEE7002FD1
:1026B00002DCED1B3E4403E0781CA84200DD054629
:1026C000A7EB060000F1010A4FF000472078000751
:1026D00003D4AA4501DB4FF0FF3A0021B7F1004FC8
:1026E0000DF143088DF8431023D002202B23002F37
:1026F00001DA7F422D234FF00A0C011EA0F10100E8
:1027000000DC4FB197FBFCF10CFB11720F4602F19C
:10271000300208F8012DF0E7A8F1010003702188CC
:10272000090501D5452100E06521A0F1010800F867
:10273000011C09980FA9A1EB080707F1070700B1D1
:10274000012000EB050101EBEA70A1693844A1EB1F
:102750000000A0F10100A0612078C00602D420464C
:10276000FEF716FF099830B1D4E901219047206A9D
:1027700000F1010020622078C00620D52046FEF737
:1027800007FF1CE0002E04DBB34502DD01A8805DDD
:1027900000E03020D4E901219047206A761C401CDB
:1027A000BAF1010A20620AD100F054FAC068016847
:1027B000405CD4E901219047206A401C2062281E19
:1027C000A5F10105DEDC07E0D4E9012118F8010BD1
:1027D0009047206A401C2062381EA7F10107F3DCF5
:1027E0002046FEF7ECFE022011B040E601694A1CCB
:1027F00002610878704700B58FB0CDE90131002142
:10280000059105497944CDE9031011466846FEF764
:102810009BFF0FB000BD0000E5FFFFFF0A6802F854
:10282000010B0A607047D1E900239A4202D2531C7F
:102830000B601070704710B5436913B1AFF300809F
:1028400001E0FEF7CEFE012010BD127800F1240158
:102850000A7000224A700122EDE711684FF0FF3242
:10286000E9E700002DE9FF5F15468A460446DFF8D8
:10287000AC80F8440027D8E900103E46CDE90010AE
:1028800011E03AF816106A4602A800F02DFE411C2D
:1028900007D02178890603D5E269391891420ED80C
:1028A000074406F101062078800602D5E069B842A7
:1028B00005DDAE42E5DB3AF816000028E1D1A0695B
:1028C000C01BA0612046FEF763FED8E90010CDE9E9
:1028D0000010002016E03AF818106A4602A800F02E
:1028E00003FE8146401C0BD000250DF1080B05E0CE
:1028F000D4E901211BF8050090476D1C4D45F7D325
:1029000008F10100B0428046E5DB206A38442062CD
:102910002046FEF754FEBDE8FF9F000042B60600C9
:102920002DE9F0418046D21D22F007020025D2E9B0
:102930000002F52914A612D0002A06DA0023D0EBF3
:10294000030063EB020211A608E0D8F800108B0721
:1029500001D50FA602E0490701D50EA601251146B3
:10296000002408F1240704E000F078F930323A55E9
:10297000641C50EA0102F7D12B46324621464046FC
:10298000BDE8F041FFF7B1BC000000002D000000E1
:102990002B0000002000000030B4002100F12404CE
:1029A0000CE002F0070505F130054FEAD20242EAD9
:1029B0004372655401F101014FEAD30352EA030562
:1029C000EFD10468002310A2250708D504F02004E5
:1029D0000C4304D0C46901230CA2641EC46130BC42
:1029E000FFF783BC10B5044621461068FFF774FC5E
:1029F00002462046BDE810400023CDE7D21D22F05C
:102A00000701D1E90023C7E7000000003000000003
:102A10003A2800D2303820F02002412A01D3A2F116
:102A20003700884201D34FF0FF30704702681144ED
:102A30001378016018467047D160054979445161A7
:102A400004497944116200211161114600F022BB52
:102A5000EDFFFFFF87EAFFFF426842B1016811F80E
:102A6000013B23B1521EC0E90012184670470121F4
:102A7000C160881E704742685AB1C368016843B993
:102A800083688B4205D0491E521CC0E90012002009
:102A900070474FF0FF3070472DE9F05F82461546D2
:102AA0008B4600270AF10104B9460078302801D08E
:102AB0009DB113E014F8010B0127782803D05828A2
:102AC00001D045B10AE00DB1102D07D1002714F84F
:102AD000010B102502E0082500E00A250026B0467B
:102AE0000EE005FB080005FB06F101271FFA80F840
:102AF00001EB1046B6F5803F00D3B94614F8010B40
:102B00002946FFF785FF0028EBDABBF1000F05D05F
:102B10000FB1641E00E05446CBF80040B9F1000F3D
:102B200006D0FFF7C1FB02210160C81EBDE8F09F7F
:102B300048EA0640FAE7431A28BF9A427FF6E5A919
:102B4000104410F0030F11441EBF11F8013D521E36
:102B500000F8013D10F0030F7FF4F6AF103AC0F01B
:102B60000A8010B531E91850103A20E91850BFF426
:102B7000F9AFBDE81040530724BF31E9081020E940
:102B8000081044BF51F8043D40F8043D12F0030F13
:102B900008BF7047D20728BF31F8023D48BF11F87F
:102BA000012C28BF20F8023D48BF00F8012C7047D7
:102BB00070B50C46016800204A1C34D040F2B5556F
:102BC0003C23B1FBF3F203FB12112160B2FBF3F1E2
:102BD00003FB112218236260B1FBF3F203FB121115
:102BE000A16046F2E0310A440721B2FBF1F301FB98
:102BF0001321B2FBF5F305FB1322A1619900B2F595
:102C0000B77F06D3521EAD10B2FBF5F3194405FB96
:102C100013220F4BE261616189077B440CD03B2A90
:102C20000AD3521C08E02C212046FFF7CAF90120E4
:102C3000E0600AE0521A401C195C9142FAD9521C19
:102C4000C4E903204FF0FF302062204670BD000031
:102C5000A2B2060000487047584F012030B5B0F1CD
:102C60000A024FEA900E71F100034EEA817EB0EB4A
:102C70000E0061EB91014FEA101E4EEA017E10EB4F
:102C80000E0041EB11114FEA102E4EEA016E10EBCF
:102C90000E0041EB11214FEA104E4EEA014E10EBAF
:102CA0000E0041EB1141401841F100014FEAD00004
:102CB00040EA41704FEAD10110EB80054FEA8104F0
:102CC00044EA907444EB01046D1944EB0404521B74
:102CD000A3414FF0000348BF0A3200D530BD401C6D
:102CE00041F1000130BD00002DE9F04F04460D46D2
:102CF000D21D22F0070089B0D0E90092484617465D
:102D000039460CF0BDFA0246F80F01D02D2307E03A
:102D10002068810701D52B2302E0202101EAC003AE
:102D20008DF82030D8B200B10120032A824601D0AC
:102D3000072A04DB2946204600F056F941E12078B5
:102D4000800601D40D2500E0E569C7F30A560D2D74
:102D50004ADA00214FEA175B08464FF00000002FC7
:102D600000F4400007DA00EB800000EBD0714FF474
:102D7000400000EA61008115012901DD4FF0FF31BB
:102D800000224FEA850CBCF1180F06D31346ACF1B4
:102D900018004FF08052C24003E04FF4801323FA32
:102DA0000CF30CF10C0CBCF1200F04D3ACF1200C93
:102DB00009FA0CF001E007FA0CF000294FF0004886
:102DC00001DD18B910E00FD140450DD319EB020910
:102DD0005F4121B9404502D19F4329EA0209BBEB7B
:102DE000175F01D006F101062088000502D57C4856
:102DF000784402E07A487844193808AA302302F867
:102E00000A30037C0AF10101002E0AF1020A535430
:102E10006A4602DC4FF0300101E04FF031014FF023
:102E200001088DF8001002D0A6F2FF3603E059EA3F
:102E3000470100D06B4E002D02DC2178090704D534
:102E40004FF002082E218DF80110C44600210BE03E
:102E5000C7F303433F01C35C491C6D1E02F80830F1
:102E6000052908F1010801DA002DF1DC00210CE050
:102E700000EB1973491C1B786D1E082902F80830F5
:102E800008F101084FEA091901DA002DF0DC217878
:102E9000890602D514E0A8F10108E04505DD02EB42
:102EA000080111F8011C3029F5D0B8F1000F07DD39
:102EB00002EB080111F8011C2E2901D1A8F101082B
:102EC000002D05DD3E2102F808106D1E08F10108F5
:102ED000407C002E02F8080008F1010806DA2D20D7
:102EE00002F80800764208F1010804E02B2002F8FD
:102EF000080008F101080A214FF47A739E420ADBA8
:102F000096FBF3F000F1300703FB106602F808703F
:102F100008F1010801E0642E0BDB642796FBF7F053
:102F200000F1300307FB106602F8083008F10108D1
:102F300001E00A2E07DB96FBF1F000F1300002F809
:102F4000080008F1010896FBF1F001FB106000F1A8
:102F5000300002F80800A16908F1010808EB050239
:102F600002EB0A00A1EB0000A0612078C00602D4A9
:102F70002046FEF70DFB216A08AE01EB0A00206235
:102F800004E0D4E9012116F8010B9047BAF1010AD7
:102F9000F7D22078C00602D52046FEF7F9FA6E4631
:102FA00009E016F8010B3E280FD0D4E90121904723
:102FB000206A401C2062B8F10108F2D22046FEF7D8
:102FC000FEFA09B00220BDE8F08F206A2844206292
:102FD00003E0D4E90121302090476D1EEBD3F8E7E0
:102FE000F7B0060002FCFFFF2DE9F0411F46044642
:102FF00003260168072A01F4006004DB08B116A566
:1030000005E016A503E008B115A500E015A521F01F
:1030100010002060A069C01EA0610FB1401EA06119
:103020002046FEF7B5FA4FB1D4E901213846904762
:10303000206A401C2062C01C206206E0206AFAE779
:10304000D4E9012115F8010B9047761EF8D22046ED
:10305000FEF7B5FABDE8F0814E414E006E616E009C
:10306000494E4600696E660010B5436913B1AFF36F
:10307000008001E0FFF7F6FB012010BD128800F18F
:10308000240182840022C2840122EDE711684FF0FE
:10309000FF32E9E72DE9F34F4FF0000A0C465646A0
:1030A0008DB001200C9001F10C000B9062690B981F
:1030B0000121904705002DD0252D2CD0216A88476D
:1030C000C0B162690B9801219047216A88470028A6
:1030D000F7D16269411E0B98904700E0761CA16908
:1030E0000D988847216A88470028F7D1E1690D9833
:1030F0008847DBE7A1690D988847A842074601D1B8
:10310000761CD3E7E1690D9888477F1C02D1BAF19C
:10311000000F6FD06AE162690B9800273D4639467F
:1031200090472A2804D162690B9801219047012514
:10313000DFF8CC8262690B9801219047A0F1300141
:103140000A290AD24745E5DC07EB870100EB410776
:10315000303FDFD445F01005ECE7E90601D46FF00D
:1031600000476C280AD04C2814D0682815D06A284B
:103170000DD074281CD07A281AD01DE062690B98F3
:10318000012190476C2802D045F0040514E045F079
:1031900002050DE045F020050AE062690B98012167
:1031A0009047682802D045F0080505E045F4006521
:1031B00062690B9801219047C4E9015765283DD009
:1031C00019DC582879D00CDC452837D004DC2528B8
:1031D00026D041289ED131E046282FD0472899D1CA
:1031E0002CE05B287FD0612828D063287BD064281E
:1031F00090D159E0F5E06F2847D008DC66281DD053
:1032000067281BD0692821D06E2816D127E07028A6
:1032100044D0732867D0752846D078280DD14CE06B
:10322000A1690D988847252805463FF469AFE169F3
:103230000D9888476D1C3FF46AAFD7E00D9923467F
:103240006A466FF00100AFF30080C4E045F0400033
:1032500023464FF000026060A80735D43DE02068A7
:1032600000F1040121600068290501D506701DE701
:10327000290701D5068019E7A90704D54FEAE671A9
:10328000C0E9006112E7066010E745F04000234600
:103290004FF008026060A80716D41EE040F60E0149
:1032A00025EA0100606016E045F0400023464FF03B
:1032B0000A026060A80707D40FE045F04000606094
:1032C000A80708D5234610220D996FF00100AFF32F
:1032D000008080E007E0102223460D996FF0010086
:1032E000FEF716FB77E04FF0000963284F46C8460B
:1032F0004B46CB4602D05B2806D038E0E80601D426
:103300000120A060012732E06269D4F80CB00B986C
:10331000012190475E2807D14FF0010949466269B3
:10332000D4F80CB00B989047216939B900210B46AD
:1033300003AA42F82130491C0829FADBD8B32169D5
:1033400049B308F1010862690B98012190475D2893
:10335000F4D1B9F1000F09D0002003A951F82020C1
:10336000D24341F82020401C0828F7DB03AB20693A
:10337000002820794FEA40701ED05B462246CDF8E7
:103380000080CDE901970D9900286FF0010020DA47
:10339000AFF300801FE0C11700EBD16203A9531106
:1033A00022F01F0201EB8301821A0B68012090407A
:1033B00003430B60C7E719E00D99224600286FF020
:1033C0000100009702DAAFF3008004E0AFF3008061
:1033D00001E0AFF3008000280ADA401C06D10C9807
:1033E00020B14FF0FF300FB0BDE8F08F5046FAE744
:1033F000E90701D10AF1010A064400200C9055E6C4
:10340000CCCCCC0C2DE9F047814616468AB0354825
:103410007844D0E9002380680092CDE9013031483A
:1034200078440C38D0E90223006903924FF0370248
:10343000CDE9043041F69B30014491FBF2F0A0F15C
:10344000800502FB10141B3C02D56442012000E001
:103450000020DFF890A080460027FA44AAF1C60AAF
:103460000DE0E00709D03246684607EB47010AEB5A
:10347000810100F0E4FA8DE8070064107F1C002C45
:10348000EFD1184F7F44B43F17E0E80713D007EBA4
:1034900004100DF1180A90E80E00AAE80E00C068AA
:1034A000F04201D198190890324606A903A800F00D
:1034B000C6FA03AB07C36D10641C002DE5D132467C
:1034C0006946B8F1000F03A802D000F0A4FA01E0A9
:1034D00000F0B5FAC9E90001C9F808200AB0BDE852
:1034E000F087000068AB060070B516460C4605462E
:1034F000FEF7D2FE036893F80101012806D0FF2CE5
:103500000FD8185D68B101202C7070BDD3F8070189
:103510003246214603442846BDE8704003F20713B3
:1035200018474FF0FF3070BD0446AFF300802046CF
:10353000FDF764FB5FEA400C08BF91F0000F4FEA13
:103540008C234FEAC12243EA51514FEA1C5018BF65
:1035500000F5F0404FEA300018BF41F000415FEA4B
:103560006C5C00F02980BCF1FF3F08BF40F0804058
:103570007047130C06BF12044FF0100C4FF0000CF4
:10358000130E04BF12020CF1080C130F04BF12013A
:103590000CF1040C930F04BF92000CF1020CD30F3A
:1035A00004BF52000CF1010C11464FF00002A0F1D3
:1035B0001F00A0EB0C00704711F0004F08BF7047D0
:1035C00031F000413FF4D5AF0B0C06BF09044FF0BA
:1035D000100C4FF0000C0B0E04BF09020CF1080C8C
:1035E0000B0F04BF09010CF1040C8B0F04BF890001
:1035F0000CF1020CCB0F04BF49000CF1010CCCF113
:103600002003A0EB0C0022FA03F302FA0CF241EAC9
:10361000030100F10100704720F07F4C80EA0300B5
:1036200023F07F47ACEB070303F57C5300F0004029
:1036300003F1FF032DE980494FEA154B09B44FEA26
:10364000144325EA0B4E24EA03480FF2042606EB46
:10365000132749083E785FEA320203FB0667C7F585
:10366000000707FB06F64FEA54374FEAD64606F145
:10367000020607FB066CCCF1005C4FEA1C472CEA03
:10368000074C07FB06F40CFB06F504EB15464FEA66
:10369000961634BF00204FF000404FEAD13706FBAA
:1036A00007FC4FEA1C4C0CFB0BF7D21B03FB0CF77F
:1036B00061EB07010CFB0EF7B0EB074072EB174212
:1036C0000CFB08F734BFA2EB0742B2EB074261EBF9
:1036D00017414FEA0C444FEA910706FB07FC4FEAFB
:1036E0001C4C0CFB0BF7B0EBC74072EB573203FBE3
:1036F0000CF734BFA2EBC742B2EBC74261EB5731C4
:103700000CFB0EF7B0EBC70072EB57720CFB08F71F
:1037100034BFA2EBC702B2EBC70261EB5771039F44
:103720004FEA816141EA921104EBCC044FEAD137B0
:103730004FEA826206FB07FC42EA90124FEA806081
:103740004FEA1C4C0CFB0BF7D21B03FB0CF761EB95
:1037500007010CFB0EF7B0EB074072EB17420CFBB6
:1037600008F734BFA2EB0742B2EB074261EB174107
:103770004FEA8C554FEA910704EB9C2406FB07FCAB
:103780004FEA1C4C0CFB0BF7B0EBC74072EB573207
:1037900003FB0CF734BFA2EBC742B2EBC74261EBAD
:1037A00057310CFB0EF7B0EBC70072EB57720CFBF6
:1037B00008F734BFA2EBC702B2EBC70261EB577147
:1037C00015EB4C254FEA816141EA92114FEA826282
:1037D0004FEAD13742EA901206FB07FC44F100049D
:1037E0004FEA80604FEA1C4C0CFB0BF7D21B03FB2B
:1037F0000CF761EB07010CFB0EF7B0EB074072EB27
:1038000017420CFB08F734BFA2EB0742B2EB0742AA
:1038100061EB174115EB1C154FEA813141EA9241EA
:103820004FEA823242EA90424FEA80304FEA0C7609
:1038300044F1000448EA03434EEA0B484FF0000EFF
:10384000B2EB080C71EB030724BF624639464EEB1E
:103850000E0E4FF0000B0018524149414BEB0B0B81
:10386000B2EB080C71EB03077BF1000B24BF62463F
:1038700039464EEB0E0E4FF0000B001852414941F5
:103880004BEB0B0BB2EB080C71EB03077BF1000B5E
:1038900024BF624639464EEB0E0E51EA020718BFAE
:1038A00046F0010616EB0E7655F1000254F10001C8
:1038B00003D5BDE88901BDE80088BDE88901BDE800
:1038C0000048B619524141EB0101A3F101037047D1
:1038D00080807F7E7D7C7B7A79787776767574734D
:1038E000727171706F6E6E6D6C6C6B6A6A6968680C
:1038F000676666656464636362616160605F5F5EA2
:103900005E5D5D5C5C5B5B5A5A5959585857575617
:10391000565555555454535352525251515050507C
:103920004F4F4F4E4E4D4D4D4C4C4C4B4B4B4A4ACE
:103930004A49494948484847474747464646454512
:10394000454444444443434343424242424141414B
:10395000002B26D4770021D01CB54FEA370703B4DB
:103960004FF010004FF010014FF000000FBCBDE809
:1039700010400BF1010BBBF1010F08BF5FEA170705
:1039800022BF12F1010211F101014FF0004143F198
:10399000000300F0004043EA00007047F9D35708E5
:1039A000DAE746EA064613F1400F4FEA16461FDDF6
:1039B00013F1200FDFBF16430A46002120335B427C
:1039C000C8D0C3F1200746EA064602FA07F74FEAD5
:1039D000164646EA0706C3F1200722FA03F201FA67
:1039E00007F721FA03F14FF0000342EA0702B1E7BB
:1039F00046EA020646EA06464FEA164646EA010647
:103A0000BCBF46EA0646360C4FF000034FF00002FA
:103A10004FF000019EE72DE9C048934630B491E88D
:103A2000380007C831EA400C48BF34EA430C03D5DC
:103A3000FFF7F2FDFFF78CFFF0BCBDE800882DE931
:103A4000C048934630B491E8380007C810F0804F62
:103A500008BF13F0804F03D100F005F8FFF778FF9F
:103A6000F0BCBDE8008820F07F4780EA030023F027
:103A70007F4C07EB0C03A3F57C5300F00040A3F14F
:103A8000FE0392F0000F00F0B38095F0000F00F0FD
:103A900077802DE901494FEA11404FEA144621EAA7
:103AA000004800FB06FC24EA064708FB06F607FB75
:103AB00008F800FB07F718EB06484CEB164C4FEAEA
:103AC000124B18EB07484FEA15464CEB174022EA19
:103AD0000B4E0BFB06FC25EA06470EFB06F607FB22
:103AE0000EFE0BFB07F71EEB064E4CEB164C4FF091
:103AF00000061EEB074E4CEB174B18EB0B0840F182
:103B0000000018EB0E0B58EB000840F100008F1A74
:103B10004FF000013CBFC943661B14BFB5EB040C5A
:103B200000213CBFC943F61B4FEA17444EEA8E0EF4
:103B300027EA04454FEA1C4704FB07622CEA074CBE
:103B400005FB07F70CFB05F604FB0CFC16EB074620
:103B500042EB174216EB0C4642EB1C421BEB0606EF
:103B600058EB0202414146EA9E0601D5BDE80189B3
:103B7000B619524141EB0101A3F10103BDE80189EE
:103B80004FEA14454FEA114724EA054621EA074C5B
:103B900005FB07F406FB07F70CFB06F105FB0CFC25
:103BA00011EB074144EB17444FEA124711EB0C416C
:103BB00044EB1C4422EA074C05FB07F206FB07F71F
:103BC0000CFB06F605FB0CFC16EB074642EB174216
:103BD00016EB0C4642EB1C456A1854F1000148BF35
:103BE0007047B619524141EB0101A3F1010370473F
:103BF00095F0000F37D04FEA11424FEA144721EAFF
:103C0000024624EA074C02FB07F106FB07F70CFB10
:103C100006F402FB0CFC14EB074441EB17414FEA9E
:103C2000154714EB0C4441EB1C4125EA074C02FB01
:103C300007F506FB07F70CFB06F602FB0CFC16EB80
:103C4000074645EB174516EB0C4645EB1C4212198F
:103C500051F1000148BF7047B619524141EB0101D3
:103C6000A3F1010370474FEA14454FEA114724EAD4
:103C7000054621EA074C05FB07F106FB07F70CFB9D
:103C800006F24FF0000605FB0CFC12EB074241EB7D
:103C9000174112EB0C4251EB1C4148BF7047921880
:103CA00041EB0101A3F10103704700002DE9F04150
:103CB00080460F4615461E46002D54D06889C828F8
:103CC00001DDC72400E06C89C8212848FEF757F9B8
:103CD00022462648696805F0BEF828463EF006FDF3
:103CE000224908190422314605F0B5F81F4921443C
:103CF000081D022206A905F0AEF8C82322461B497A
:103D0000082027F0EFF980B2040001D1BDE8F0816E
:103D1000224617A11548FDF77DFF20B90D2C02D1D1
:103D2000306850F069FB164890F900000F2809DB55
:103D3000134890F90000122804DC21460B4823F0B8
:103D400071FAE3E70F48316801602146074810F037
:103D5000ADFB40B10C480760BDF818000B49088066
:103D600002482FF0D5FE00BFD0E70000DC4D002058
:103D7000736D6172746C696E6B66696E64000000CD
:103D800088080020CC070020BC070020C2070020C4
:103D900070B504460D460CB9204670BD0DB92046DD
:103DA000FBE70021606928F080FCA06810B9A560DD
:103DB000256002E0A0680560A560A089401CA08184
:103DC000606928F06BFC2046E7E7000070B5044608
:103DD0000D4605F00FFF204820A10268032002F0E5
:103DE00063FD1D480068C0B1E0001B490968B1FBD4
:103DF000F0F0401E1F494860E00017490968B1FB18
:103E0000F0F200FB1210C000E100B0FBF1F0194924
:103E1000496841EA0040174948600F480068C0B14E
:103E2000E8000D490968B1FBF0F0401E12494860F6
:103E3000E80009490968B1FBF0F200FB1210C0006C
:103E4000E900B0FBF1F00C49496841EA00400A4939
:103E50004860002070BD0000F40500205243343853
:103E60004D487A43616C69537973436C6B3D2564AB
:103E70000A00000000600140005001407CB504468B
:103E80000A480CF0F6FD05466946042033F072F945
:103E90002146684632F028FE6946062033F06AF96A
:103EA000294602480CF0FDFD7CBD0000F40900200D
:103EB0001CB50A480CF0DDFD04466946042033F0C9
:103EC00059F9684632F030FE6946062033F052F95F
:103ED000214602480CF0E5FD1CBD0000F40900205D
:103EE00010B594B04C2101A8FEF76BF824211F48AF
:103EF000FEF767F84FF0FF301C4988601C4828F037
:103F0000B5FB002830D1482301AA092119A026F0C9
:103F100043F91BA101A8FDF76BFE04462CB1482311
:103F200001AA272117A026F037F904F083FA05F03B
:103F3000EDFE05F0C3FF05F033FF06F029F808F0A9
:103F40002BFE06F0AFFB05F007FD05F09FFF05F027
:103F5000E1FF05F02FFC05F0F5FF14480078144947
:103F6000086014480078486014B010BD2C2C002064
:103F7000502C002041542B4E4554500D0A00000097
:103F80005443500041542B4E4554503D5544502C01
:103F90005345525645522C383838382C31302E3152
:103FA000302E3130302E3235340D0A0020050020FD
:103FB000A40500202105002030B502460020002382
:103FC00004E012F8014B60405C1CE3B28B42F8DB6A
:103FD00030BD0000F0B504460020B4F5004F0DDA06
:103FE000B1F5004F0ADCB2F5004F07DC8D18B5F5CE
:103FF000004F03DC994201DB012B02DA4FF0FF3066
:1040000034E01B4D2D6864F30E05194E3560194DD3
:104010002D6864F30E05174E35604D1E164E36683A
:1040200065F30E06144D2E605D1E144E366865F362
:104030000E06124D2E600125114E35606618114D89
:104040002D6866F30E050F4E356066180E4D2D680F
:1040500066F30E050C4E3560551E0C4E366865F342
:104060000E060A4D2E600125094E3560F0BD000098
:104070006850014054500140585001405C5001408C
:10408000000C2A42745001407C500140785001409D
:1040900000102A422DE9F04105460C4600271A2D52
:1040A00071D2DFE805F0ED0D1C3A3FED464C515959
:1040B00069715F64767B82878E939A9ECFDEC1C6DC
:1040C0007348006880B2461C71480068C0F3024023
:1040D00000EBC60601F09EFAB0FBF6F7D3E001F064
:1040E00099FAE100B0FBF1F0401E6949096860F3FC
:1040F0000F016748016001F08DFAE100B0FBF1F2B9
:1041000001FB1200C000E100B0FBF1F16048006863
:1041100061F312405E490860B5E05E48006800F057
:104120000307B0E05B48006864F301005949086088
:10413000A9E004F001005849C1F86C02A3E004F0C2
:104140000100564908609EE004F001005249C1F8A0
:104150007802C1F8700296E004F001004F49091D91
:10416000086090E04E48806900F01F078BE04C48E3
:10417000806B00F0030786E001204749C1F8740214
:10418000C1F87C027FE07BE00120444908310860EF
:1041900079E044480068C0F30E0774E041480068C5
:1041A00064F30E003F4908606DE03F480068C0F3CB
:1041B0000E0768E03C48006864F30E003A49086066
:1041C00061E03A480068C0F30E075CE037480068D9
:1041D00064F30E003549086055E001203449086059
:1041E00051E034480068C0F30E0033490968C1F358
:1041F0000E01401A31490968C1F30E012E4A1268B6
:10420000C2F30E02891A411A26480068C0F30E0054
:10421000401C014423480068C0F30E00401C91FB81
:10422000F0F200FB12172EE004F00100244988612F
:1042300029E0204800682149096860F30E011F4801
:10424000016020E044B104F00300401E1D490860F5
:104250000120091F086003E000201A49091F0860B7
:1042600011E044B104F00300401E1749086001202A
:10427000091F086003E000201349091F086002E0DD
:104280004FF0FF3700BF00BF3846BDE8F0810000A7
:10429000045001401C50014014002A4280062A426A
:1042A00000500140585001405C500140785001409E
:1042B00000102A42645001405450014068500140AF
:1042C00000002A42040A2A42040E2A422DE9F04143
:1042D00004460D4616461F46B4F5167F0AD33448E9
:1042E000844207D8052D05DB082D03DC022E01DCF6
:1042F000022F03DD4FF0FF30BDE8F081681F2D492C
:10430000096860F301012B4801602EB101202A49A0
:104310008860701EC86004E0012027498860002082
:104320008860781E244908610120486101F072F913
:10433000E100B0FBF1F0401E2049096860F30F0175
:104340001E48016001F066F9E100B0FBF1F201FBEB
:104350001200C000E100B0FBF1F11848006861F301
:104360001240164908601648006840F008001449D9
:104370000860012010498861042001218140420920
:104380004FF0E02303EB8202C2F8001100BF0020CF
:104390000C49C1F870020C4908600A49C1F878025A
:1043A0000120C1F86C020849091F08600020A3E73A
:1043B000C0C62D000050014000002A4204500140B8
:1043C0000090014014002A4284062A422DE9F74F4A
:1043D00082B080460F46002401F01CF9C60000217F
:1043E0000120FFF757FEB6FBF0F0009011F0C4F982
:1043F000049900EB010A00BF009801908AE064482C
:104400000068C0F30E0563480068C0F30E096248F7
:104410000068C0F30E00A9EB00005F490968C1F312
:104420000E01691A411A5D480068C0F30E00401C75
:1044300001445A480068C0F30E00401C91FBF0F2A2
:1044400000FB1216002E62DD381BB04201D9304647
:1044500000E0381B0646A9EB050000280CDC4E489E
:104460000068C0F30E004D490968C1F30E0108440D
:10447000401C401BB04207DB08EB040032464849B1
:104480002944FDF7BBFC23E043480068C0F30E005D
:1044900042490968C1F30E010844401CA0EB050B1A
:1044A00008EB04005A463E492944FDF7A7FCA6EB59
:1044B0000B02394B1B68C3F30E03DFF8E4C003EBB8
:1044C0000C0104EB0B0303EB0800FDF797FC00BFA6
:1044D000A81931490968C1F30E01411A2F48006833
:1044E000C0F30E00401C91FBF0F200FB12102A49B1
:1044F0000968C1F30E01084485B22548006865F3D8
:104500000E002349086034440098019002E00198AD
:10451000401E0190019810B1BC42FFF470AFA74259
:1045200000D128E011F028F9B0EB0A001AD511F0FB
:1045300023F9AAEB0000049001210820FFF7AAFD4F
:1045400041F6FF70FFF79AFC00BFEFF3058028B932
:1045500000210846049A33F015F800E000BFFFF789
:10456000A7FC00E000BFBC4205D211F005F9B0EB9A
:104570000A003FF541AF00BF01210820FFF78AFD87
:1045800024B94FF0FF3005B0BDE8F08F2046FAE7C0
:10459000685001406450014054500140585001405F
:1045A000008001202DE9F0470546894600248E4809
:1045B000806900287BD08D480068C0F30E00B9FBED
:1045C000F0F669E08A48806B00B965E089480068C8
:1045D000C0F30E0A88480068C0F30E0787480068D9
:1045E000C0F30E0050450FD1804B1B68C3F30E0281
:1045F0002919824B1B68C3F30E03DFF804C203EBD7
:104600000C00FDF7FBFB24E07C480068C0F30E00C3
:1046100076490968C1F30E010844401CA0EB0A0862
:104620002919424676485044FDF7E8FB6F4B1B685A
:10463000C3F30E03A3EB080204EB080359196F4BF5
:104640001B68C3F30E03DFF8B8C103EB0C00FDF7E2
:10465000D5FB66480068C0F30E0038446749096816
:10466000C1F30E01411A61480068C0F30E00401CFE
:1046700091FBF0F200FB12116048006801445E48B3
:10468000006861F30E005C49086058480068C0F398
:104690000E000444761E00BF002E93D153480068DC
:1046A000C0F30E00B9FBF0F100FB119675E077E066
:1046B00050480068C0F30E0A4F480068C0F30E0768
:1046C0004A480068C0F30E004C490968C1F30E0166
:1046D000AAEB0101084449490968C1F30E01791A9E
:1046E000411A42480068C0F30E00401C91FBF0F2F2
:1046F00000FB1218B04500D24FE040480068C0F3FC
:104700000E003A490968C1F30E010844401CB9196A
:10471000884206D32919324639483844FDF76EFBE2
:1047200020E036480068C0F30E0030490968C1F344
:104730000E010844401CA0EB0708291942463048E6
:104740003844FDF75BFBA6EB080204EB080359199C
:104750002A4B1B68C3F30E03DFF8A4C003EB0C0065
:10476000FDF74CFBB81925490968C1F30E01411A40
:104770001E480068C0F30E00401CB1FBF0F200FBC5
:1047800012111E48006801441B48006861F30E00C6
:10479000194908603444002600BF002E88D11BE070
:1047A00004E02046641C285C16490863164800682B
:1047B00008B94C45F5D30120144908600AE004E02B
:1047C0002046641C285C0F4908630F48006808B93C
:1047D0004C45F5D34C45F2D301200C490831086013
:1047E0002046BDE8F087000000002A4278500140D2
:1047F00084102A42845001407C5001407450014092
:10480000008001200050014004082A4280062A420C
:104810002DE9F04F8DB006464FF0000800254FF40B
:10482000C019344606F1320A002328223146484690
:1048300021F0D6F909F1280900BF00BF39E009F0DD
:104840007FFB05F50070216A814202D2206A471B76
:1048500001E04FF400774FF400715046FDF78FFBF5
:1048600000233A465146484621F0BAF942463946B5
:10487000504621F0E5FA804643461EA101A8626A2F
:10488000FCF754FE2248006890F8840201280AD1FF
:1048900001A8FDF73DFA83464FF47A735A4601A901
:1048A000092028F05AFB3D44B944B5F5002F00DD3E
:1048B00005E0206AA84202D9206A0028BFD100BFC3
:1048C0001348006890F88402012806D14FF47A73E7
:1048D000022210A1092028F040FB606A404505D162
:1048E000206A18B1206A0DB0BDE8F08F4FF0FF309C
:1048F000F9E700002020435243203A5B25645D2CF9
:104900002043616C633A205B25645D0D000000006C
:10491000840600200A0D00002DE9F74F82B00446FE
:104920008A464FF480190025A846002600200190F1
:10493000274600BF09F004FB0023382221464846E1
:1049400021F04EF9002800DA1AE037A1381DFDF7F2
:104950008BFB20B138A1381DFDF786FB38B94FF02D
:104960000108786ACAF80000B96A04980160B86A58
:10497000064409F138096D1C386808B1642DD9DB8B
:1049800000BFC5EBC50006EBC006B8F1010F03D1AF
:1049900016B1B6F5C22F03D9002005B0BDE8F08FDF
:1049A0000020054680464FF480191BE009F0C8FA44
:1049B00005F50070B04202D9A6EB050801E04FF4FE
:1049C0000078002342462146484621F009F9002894
:1049D00000DA09E041462046019A21F031FA0190BF
:1049E0004544C144B542E1D300BF0023082221461B
:1049F000484621F0F5F804F1020BDBF800100198AD
:104A000081420BD12078AA2808D16078882805D166
:104A1000A079AA2802D1E079882802D04FF0FF308F
:104A2000BBE70120B9E700002F696E6465785F631A
:104A30006E2E68746D6C00002F696E6465785F651A
:104A40006E2E68746D6C00002DE9F05F04464FF423
:104A5000C019002500270026AA46A04600BF09F07D
:104A60006FFA002338222146484621F0B9F8002881
:104A700000DA17E033A108F10400FDF7F5FA28B1D8
:104A800034A108F10400FDF7EFFA00B90127D8F8C6
:104A90002800064409F138096D1CD8F8000008B157
:104AA000642DDCDB00BFC5EBC50006EBC006012FA3
:104AB00003D116B1B6F5C22F02D90020BDE8F09F90
:104AC0000020054607464FF4C0191AE009F038FAED
:104AD00005F50070B04201D9771B01E04FF4007773
:104AE00000233A462146484621F07AF8002800DAA9
:104AF00009E052463946204621F0A2F982463D445B
:104B0000B944B542E2D300BF0023082221464846FB
:104B100021F066F804F1020BDBF8000050450BD1E0
:104B20002078AA2808D16078882805D1A079AA28F9
:104B300002D1E079882802D04FF0FF30BEE7012093
:104B4000BCE700002F696E6465785F636E2E687441
:104B50006D6C00002F696E6465785F656E2E6874F9
:104B60006D6C000010B58EB0342101A8FDF729FA54
:104B7000132301AA0A2121A025F00EFB22A101A8DE
:104B8000FDF736F80446BCBB05F082F81F4890F8E4
:104B9000350018B900201E4908700FE01B4890F836
:104BA000350058B101201A4908701A48007820F0E1
:104BB000010018490870012003F0F8FC164800783D
:104BC00013490978884217D011480078012809D183
:104BD0001048007820F001000E490870012003F011
:104BE000E5FC05E00B48007840F001000949087039
:104BF00007480078084908700EB010BD41542B5783
:104C00004D4F44450D0A0000415000005C05002056
:104C1000C2040020AC050020C3040020002000BF17
:104C200014E000EB8002184901EB8201CA7B00EB23
:104C30008003154901EB8301097C8A4204D01349A2
:104C40000978491C114A1170411CC8B210490978F1
:104C50008842E6DB0D490978052914DD00210B4A5D
:104C6000117000EB8002084901EB82010A7C00EB25
:104C70008003054901EB8301CA730649096841F4C1
:104C80008041044A1160704734040020CC040020A5
:104C9000250400202C2C002010B527F043FC27F021
:104CA00049FC10BD10B504461649D1F86C12D9B1B3
:104CB0001449D1F8701259B11349496831B11249F8
:104CC0000968491C114AB2FBF1F01AE00F4818E0DC
:104CD0000D49496831B10C490968491C0C4AB2FBBD
:104CE000F1F00EE00A480CE000F02EF844B9064955
:104CF000496831B104490968491CB0FBF1F000E092
:104D0000044810BD14003E4200F0014000B4C40449
:104D100000D8B805006CDC0206498968C0F30B02B4
:104D20001143044A91601146C96841EA1031D160CB
:104D30007047000000F00140024909690143014A3F
:104D40001161704700F001403EB503F047FC054695
:104D500001202349C1F8E802284603F037FC01206E
:104D60002049C1F864034FF47A71684608F0B4FF33
:104D700008E0684603F0B4FA20B11BA033F07CFAD7
:104D800000203EBD1748D0F8E4030028F1D01A48AF
:104D9000446A01201349C1F868034FF47A716846E8
:104DA00008F09AFF08E0684603F09AFA20B10EA0D6
:104DB00033F062FA0020E4E70A48D0F8E403002860
:104DC000F1D10849C1F868030C48406810F01F0F82
:104DD00001D1A003D5E743F6095104FB01F0D0E768
:104DE000180044421C003E4231532054696D656FE7
:104DF0007574210A0000000000F0014018200240F4
:104E000070B50546002447E0254800EB0410007803
:104E100070B3234800EB04104068214901EB0411F2
:104E2000C9680844A84224D81D4800EB0410406813
:104E30001B4901EB0411C9680844401DA84218D958
:104E40000020174901EB04110870154800EB04100D
:104E5000407828B9611CC8B2002108F079FD04E04F
:104E6000611CC8B2012108F073FD07200D49C8700C
:104E700010E00B4800EB04104068094901EB0411F5
:104E8000C9680844401DA84204D20020044901EB2F
:104E900004110870601CC4B2062CB5DB70BD0000A4
:104EA000BC2B00202C04002038B5144988682DF054
:104EB00081FF044618E014F0FF0F08D0E0B2FF288D
:104EC00005D00E4908682DF075FFA04200D10AE018
:104ED00020462DF06FFF0090009800F02DF808B9E3
:104EE000009838BD00BF641C0449C8682DF062FFFB
:104EF000A042E0D2002000900098F2E7F862002083
:104F000070B5054600240CE0094901EB4410062267
:104F10002946FCF77FFE18B9054800EB441070BD28
:104F2000641C0448006AA042EED80020F7E70000A5
:104F30002C610020F862002001B500210BE0094837
:104F400000EB41100069009A904203D1054800EB44
:104F5000411008BD491C0448006A8842EFD800206F
:104F6000F7E700002C610020F862002010B5A021B6
:104F70000F48FDF726F81CF011FE0E480068B0B986
:104F800055F0A0FB0B49086008460068007A40F025
:104F9000200009680872432207490648006855F056
:104FA000C9F9002205490348006855F099FB10BD76
:104FB0002C61002020170020A0A0060059DE000070
:104FC00000212EE0425C0270252A24D1421852783A
:104FD000412A05DB4218527802F0DF02373A02E03C
:104FE00042185278303A027002781207120E02709C
:104FF000037842189278412A05DB4218927802F031
:10500000DF02373A02E042189278303A1A440270CE
:105010008A1C91B204E0425C2B2A01D1202202704A
:10502000401C425C002ACDD10270704710B50F4978
:105030001D2025F048FA0E491E2025F044FA0123D0
:105040000C4A8021222025F04FFA20B10AA10A2023
:1050500001F02AFC10BD08F057FB04F0DFFD54F00E
:1050600051FE03F051F900BFF4E700000100000811
:1050700002000010596E0100636F6E6669677572F9
:10508000652048464750494F5F465F555345525F3C
:1050900052454C4F4144206661696C0A0000000093
:1050A00030B59DB0342110A8FCF78BFF4021684635
:1050B000FCF787FF0025204A20A16846FCF736FA56
:1050C000C5B2302310AA2946684625F065F8132397
:1050D00010AA0A211DA025F05FF81FA110A8FCF757
:1050E00087FD04464CB91D48007840F001001B497B
:1050F000087002201A4908601BE01A48007890B92D
:10510000302310AA0E2118A025F046F8302310AA4B
:10511000162119A025F040F8302310AA06211CA062
:1051200025F03AF805E0302310AA0A211AA025F04C
:1051300033F81DB030BD00006305002041542B57EB
:10514000524D49443D25730D0A00000041542B5730
:105150004D4F44450D0A000041500000AC050020B1
:10516000C4040020C104002041542B574D4F444536
:105170003D5354410D0A000041542B57535353499A
:10518000443D555047524144452D41500D0A0000C1
:1051900041542B5A0D0A000041542B534D544C4B93
:1051A0000D0A000010B520200AF04EFA02480068EF
:1051B000401C0149086010BDBC06002010B5044821
:1051C0000068401E0249086001D10AF03DFA10BD96
:1051D000BC0600200149087070470000DD0900206E
:1051E00010B5002027F06BFA10BD000030B59FB05D
:1051F000342112A8FCF7E5FE132312AA0A213DA0D0
:1052000024F0CAFF3EA112A8FCF7F2FC04460F21CD
:105210003D48FCF7B4FEACB1241D083422463BA146
:1052200002A8FCF783F90546414B42A210213648FB
:105230000094FCF791F9302312AA294602A824F021
:10524000ABFF04E00F223A492F48FCF7D7FD3B485B
:105250003BA10A688260097901733BA10A68C261B7
:10526000097980F820103AA10A680263097980F868
:10527000341039A10A684264097980F8481038A1CD
:105280000A688265097980F85C1037A10A68C266ED
:10529000097980F8701009F0D3FE012034490870B4
:1052A00009F02EFF01214FF4405027F077FE012135
:1052B000002027F073FE01214FF4A04027F06EFE7E
:1052C00001214FF4404027F069FE0121002008F041
:1052D0003FFB2848006840F480402649086007F0FA
:1052E0006BFA4FF4FA7024F017F8FFF7D5FC1FB0F3
:1052F00030BD000041542B57534D41430D0A00006F
:105300002B6F6B3D000000008105002041542B579E
:1053100041503D313142474E2C536D61727453748C
:105320007269702D25732C4348310D0A000000006E
:105330004305002025732D25730000002C04002058
:10534000504F525431000000504F52543200000070
:10535000504F525433000000504F5254340000005C
:10536000504F525435000000504F52543600000048
:10537000C10400202C2C002010B50120FFF792FC66
:1053800010BD00002DE9F04105460C4600270E2D0A
:105390007DD2DFE805F07C07163D42494E54595F47
:1053A0007077656A3D48006880B2461C3B480068DB
:1053B000C0F3024000EBC606FFF7DEFFB0FBF6F7D6
:1053C00068E0B4F5966F02D33548844202D94FF0B5
:1053D000FF375FE0FFF7D0FFE100B0FBF1F0401EC8
:1053E0002E49096860F30F012C480160FFF7C4FFE4
:1053F000E100B0FBF1F201FB1200C000E100B0FBE4
:10540000F1F12648006861F312402449086041E048
:105410002448006800F003073CE02248006864F379
:1054200001002049086035E001201F49C1F8E00370
:1054300030E004F001001D49C1F86C022AE004F0DC
:1054400001001B49086025E004F001001749C1F87C
:1054500070021FE004F001001549091D086019E001
:105460001448806900F01F0714E01248806B00F0B8
:1054700003070FE00BE001200C49C1F87402C1F8EA
:105480007C0207E001200A490831086002E04FF081
:10549000FF3700BF00BF3846BDE8F081046001401F
:1054A000C0C62D001C60014020002C4214002C427C
:1054B00080062C42006001402DE9F04104460E4672
:1054C00015461F46701F2C49096860F301012A48E0
:1054D00001602DB1012029498860681EC86004E080
:1054E00001202649886000208860781E23490861D1
:1054F00001204861FFF740FFE100B0FBF1F0401EE2
:105500001F49096860F30F011D480160FFF734FF70
:10551000E100B0FBF1F201FB1200C000E100B0FBC2
:10552000F1F11748006861F3124015490860154809
:10553000006820F003001349086001201249086246
:10554000C8631249C1F87002C1F8780200201049FE
:10555000086003200121814042094FF0E02303EB62
:105560008202C2F8001100BF01200849C1F86C0294
:105570000020BDE8F08100000060014000002C42E6
:10558000046001401C6001400060014014002C4296
:1055900084062C4201460548006810B14FF0FF30E8
:1055A00070470348006908700120F9E780042C4225
:1055B0000060014030B50246002011E0114B1B682D
:1055C0002BB90346401CD35C0F4C236308E00F4B00
:1055D0001B6823B901230E4C23600023236000BF06
:1055E0008842EBD3074B1B1F1B684BB900BF074B0F
:1055F0001B68002BFBD10123054C23600023236093
:1056000030BD000004082C420060014004072C4219
:1056100080062C4210B50120FFF744FB10BD0000AE
:10562000F0B587B005460E46154901EB0511081D7A
:10563000FCF75AFD0446124800EB0510C0681049FB
:1056400001EB05114978D4E90032CDE90223CDE917
:1056500004100C4991F83A10A06808440C38E1682D
:10566000CDE900102069431C606900F26C7206A14C
:105670003046FBF75BFF0746384607B0F0BD000039
:10568000BC2B00205C0500207B22737461727422A5
:105690003A2225642D253032642D253032642C25A4
:1056A0003032643A253032643A25303264222C227A
:1056B000737769746368223A25642C2264656C618F
:1056C00079223A25647D000000487047E0290020D7
:1056D0002DE9F047A0B007463E463948007800283B
:1056E0006ADD3E46002460E03548083000EB441097
:1056F00045780DF1180A4FF0000910E030480830E5
:1057000000EB4410801C10F809202EA15046FBF736
:105710000DFF8046C24409F1010000F0FF09B9F114
:10572000060FEBDB00200AF8010C2548083000EBDF
:10573000441041692248083000EB4410C06806AAB2
:10574000CDE9002002911E48083000EB441090F98A
:1057500000301B48083000EB44101BA1C2693046E2
:10576000FBF7E4FE80464644012000EAA510012133
:1057700001EA6511012202EA2512012303EAE50389
:10578000CDE90132CDE90310012000EAA500009027
:10579000012000EA650305F0010218A13046FBF77D
:1057A000C5FE80464644601CC4B205480078A0424D
:1057B0009ADC761E00203070304620B0BDE8F087BD
:1057C000142A002025642C007B226964223A256477
:1057D0002C22656E223A25642C22706F7274223A54
:1057E0005B222573225D2C22646179223A25642C88
:1057F0002274696D65223A25642C00002277656564
:105800006B223A5B25642C25642C25642C25642CA2
:1058100025642C25642C25645D7D2C0005480088BA
:1058200010F4006F05D00348006820F400600149BF
:10583000086070472C2C00200548017801F03F01DA
:105840003F2901D10020704701F03F00FBE7000035
:10585000777F7C0070B5044602F0C0FE054600204C
:10586000144908601449C1F814029CB1012C10D0ED
:10587000022C05D0032C14D103201049086011E03C
:1058800000200E4908604FF003000B49C1F80C02DC
:1058900008E000BF0020094908600749C1F80C0270
:1058A00000E000BF00BF012002490860284602F066
:1058B0008DFE70BD002202400020024010220240F6
:1058C000FF2803D10021074A116070470121054AD2
:1058D00011600549096860F38F31034A116000BF08
:1058E000F3E70000B4160442B4200040FF2803D1BF
:1058F0000021074A116070470121054A11600549DE
:10590000096860F35241034A116000BFF3E70000E9
:10591000C0160442B4200040FF2803D10021074AEA
:10592000116070470121054A11600549096860F35B
:105930000921034A116000BFF3E700009C160442EE
:10594000B4200040FF2803D10021074A11607047AE
:105950000121054A11600549096860F3CC21034A19
:10596000116000BFF3E70000A8160442B420004015
:1059700070B504460D46FBF71DFC054850F82400A1
:10598000A843034941F82400FBF712FC70BD000056
:1059900000200040B1F5004F75D02EDC802973D077
:1059A00013DC082971D009DCB1F1004F6ED0012958
:1059B00057D002295ED0042969D16AE010297DD030
:1059C00020296FD04029F7D191E0B1F5006F6AD05E
:1059D00009DCB1F5807F67D0B1F5007F77D0B1F5F4
:1059E000806FE9D1AEE0B1F5805F71D0B1F5005FB5
:1059F0006FD0B1F5804FDFD1C8E0B1F5000F69D0AD
:105A000017DCB1F5002F6FD009DCB1F5803F6CD009
:105A1000B1F5003F6AD0B1F5802FCDD1DAE0B1F514
:105A2000801F76D0B1F5001F74D0B1F5800FC3D1BF
:105A3000F4E0B1F1006F6ED009DCB1F1807F6BD082
:105A4000B1F1007F69D0B1F1806FB5D10AE1B1F158
:105A5000805F75D0B1F1005F73D0B1F1804FABD1F1
:105A600024E19D4A52F8202022F001029A4B43F88B
:105A700020202EE1984A52F8202022F00202964B74
:105A800043F8202025E18AE03AE00EE017E11FE12B
:105A900014E0914A52F8202022F004028E4B43F881
:105AA000202016E117E056E038E08B4A52F820201B
:105AB00022F00802884B43F820200AE1864A52F877
:105AC000202022F01002844B43F8202001E12EE038
:105AD0004AE052E0ABE0804A52F8202022F0200257
